:020000000C945E
:10000200D3090C9400000C9400000C9400000C9492
:1000120000000C9400000C94D20D0C9400000C947F
:1000220000000C9400000C9400000C9400000C944E
:1000320000000C9400000C9400000C9400000C943E
:1000420000000C9400000C9400000C9400000C942E
:1000520000000C9400000C9400000C9400000C941E
:1000620000000C9400000C9400000C9400000C940E
:1000720000000C9400000C9400000C9400000C94FE
:1000820000000C9400000C9400000C9400000C94EE
:1000920000000C9400000C9400000C9400000C94DE
:1000A20000000C9400000C9400000C9400000C94CE
:1000B20000000C9400000C9400000C94B00E0C9400
:1000C20000000C9400000C9400000C9400000C94AE
:1000D20000000C94D50E0C9400000C9400000C94BB
:1000E20000000C9400000C9400000C9400000C948E
:1000F20000000C9400000C9400000C9400000C947E
:100102000C140C9400000C9400000C9400000C944D
:1001120000000C9400000C9400000C9400000C945D
:1001220000000C9400000C9400000C9400000C944D
:1001320000000C94C10D0C9400000C9400000C946F
:1001420000000C9400000C9400000C9400000C942D
:1001520000000C9400000C9400000C9400000C941D
:1001620000000C9400000C9400000C9400000C940D
:1001720000000C9400000C9400000C9400000C94FD
:1001820000000C9400000C9400000C9400000C94ED
:1001920000000C9400000C9400000C9400000C94DD
:1001A20000000C9400000C9400000C9400000C94CD
:1001B2002C140C9400000C9400000C9400000C947D
:1001C20000000C9400000C9400000C9400000C94AD
:1001D20000000C9400000C9400000C9400000C949D
:1001E20000000C9400000C9400000C9400000C948D
:1001F20000000102030A0405060B0708090C0D00A2
:100202000E0F0000000080841E00755620000705B6
:100212001100000000D00700006D562000041811E4
:1002220087FFFFFFFAFFFFFF64422000042B11A5A6
:10023200FFFFFF1800000064426D00044211940F9A
:100242000909090909090909090909010909090924
:1002520030100909090909090904090209000909F3
:1002620005095611090909090909090109030900C2
:1002720009090609541209090909090909020904A7
:100282000900090907095D1309090909090909038F
:1002920009010900090908099A100505050505055E
:1002A20005050505050909010109E111060606060C
:1002B20006060606060606090902020924130707AE
:1002C2000707070707070707070907030307981325
:1002D2000909090909090908090809090904040998
:1002E2000000803F0000000011FB7F3F900E493C60
:1002F20043EC7F3FB00AC93C97D37F3F2CC3163DE6
:100302000FB17F3F30FB483DAB847F3F742B7B3D79
:100312006D4E7F3F05A9963D580E7F3F80B6AF3D9B
:100322006DC47E3F36BDC83DB0707E3F2EBCE13D00
:1003320024137E3F73B2FA3DCCAB7D3F86CF093E9C
:10034200AC3A7D3F8340163EC9BF7C3FB6AB223EEE
:10035200283B7C3FA2102F3ECDAC7B3FCF6E3B3E75
:10036200BE147B3FC2C5473E02737A3F0115543E1D
:100372009DC7793F135C603E9812793F7F9A6C3E2D
:10038200F853783FCCCF783EC58B773FC07D823E15
:1003920007BA763F938E883EC6DE753F229A8E3E1E
:1003A2000BFA743F31A0943EDD0B743F86A09A3E57
:1003B2004714733FE59AA03E5213723F128FA63E36
:1003C2000809713FD47CAC3E73F56F3FEF63B23ED8
:1003D2009ED86E3F2A44B83E93B26D3F4A1DBE3E40
:1003E2005E836C3F15EFC33E0C4B6B3F53B9C93E66
:1003F200A7096A3FCA7BCF3E3CBF683F4136D53E24
:10040200D86B673F80E8DA3E880F663F4F92E03E46
:1004120059AA643F7533E63E5A3C633FBBCBEB3E81
:1004220098C5613FEA5AF13E2146603FCBE0F63E75
:1004320005BE5E3F275DFC3E532D5D3FE4E7003F76
:100442001A945B3F3D9C033F6AF2593F824B063F41
:100452005348583F9BF5083FE595563F6B9A0B3F33
:1004620031DB543FDA390E3F4918533FCDD3103FA9
:100472003D4D513F2A68133F1F7A4F3FD9F6153F32
:10048200029F4D3FC07F183FF8BB4B3FC6021B3F48
:1004920012D1493FD17F1D3F65DE473FCBF61F3F5B
:1004A20003E4453F9967223F00E2433F25D2243FC0
:1004B20070D8413F5636273F67C73F3F1594293FC3
:1004C200F9AE3D3F4AEB2B3F3B8F3B3FDE3B2E3F9E
:1004D2004268393FBB85303F233A373FC9C8323F74
:1004E200F304353FF304353FC9C8323F233A373F5F
:1004F200BB85303F4268393FDE3B2E3F3B8F3B3F5F
:100502004AEB2B3FF9AE3D3F1594293F67C73F3F6A
:100512005636273F70D8413F25D2243F00E2433F61
:100522009967223F03E4453FCBF61F3F65DE473F15
:10053200D17F1D3F12D1493FC6021B3FF8BB4B3F43
:10054200C07F183F029F4D3FD9F6153F1F7A4F3F9C
:100552002A68133F3D4D513FCDD3103F4918533FB9
:10056200DA390E3F31DB543F6B9A0B3FE595563F2C
:100572009BF5083F5348583F824B063F6AF2593F6A
:100582003D9C033F1A945B3FE4E7003F532D5D3FE0
:10059200275DFC3E05BE5E3FCBE0F63E2146603F56
:1005A200EA5AF13E98C5613FBBCBEB3E5A3C633FF2
:1005B2007533E63E59AA643F4F92E03E880F663F8C
:1005C20080E8DA3ED86B673F4136D53E3CBF683F94
:1005D200CA7BCF3EA7096A3F53B9C93E0C4B6B3F5A
:1005E20015EFC33E5E836C3F4A1DBE3E93B26D3F24
:1005F2002A44B83E9ED86E3FEF63B23E73F56F3F1A
:10060200D47CAC3E0809713F128FA63E5213723F52
:10061200E59AA03E4714733F86A09A3EDD0B743FD5
:1006220031A0943E0BFA743F229A8E3EC6DE753F8D
:10063200938E883E07BA763FC07D823EC58B773F58
:10064200CCCF783EF853783F7F9A6C3E9812793F30
:10065200135C603E9DC7793F0115543E02737A3F99
:10066200C2C5473EBE147B3FCF6E3B3ECDAC7B3F07
:10067200A2102F3E283B7C3FB6AB223EC9BF7C3F37
:100682008340163EAC3A7D3F86CF093ECCAB7D3FE0
:1006920073B2FA3D24137E3F2EBCE13DB0707E3F23
:1006A20036BDC83D6DC47E3F80B6AF3D580E7F3F1C
:1006B20005A9963D6D4E7F3F742B7B3DAB847F3FFA
:1006C20030FB483D0FB17F3F2CC3163D97D37F3F90
:1006D200B00AC93C43EC7F3F900E493C11FB7F3F7F
:1006E200000000000000803F900E49BC11FB7F3FDC
:1006F200B00AC9BC43EC7F3F2CC316BD97D37F3FE2
:1007020030FB48BD0FB17F3F742B7BBDAB847F3F75
:1007120005A996BD6D4E7F3F80B6AFBD580E7F3F97
:1007220036BDC8BD6DC47E3F2EBCE1BDB0707E3FFC
:1007320073B2FABD24137E3F86CF09BECCAB7D3F98
:10074200834016BEAC3A7D3FB6AB22BEC9BF7C3FEA
:10075200A2102FBE283B7C3FCF6E3BBECDAC7B3F71
:10076200C2C547BEBE147B3F011554BE02737A3F19
:10077200135C60BE9DC7793F7F9A6CBE9812793F29
:10078200CCCF78BEF853783FC07D82BEC58B773F11
:10079200938E88BE07BA763F229A8EBEC6DE753F1A
:1007A20031A094BE0BFA743F86A09ABEDD0B743F53
:1007B200E59AA0BE4714733F128FA6BE5213723F32
:1007C200D47CACBE0809713FEF63B2BE73F56F3FD4
:1007D2002A44B8BE9ED86E3F4A1DBEBE93B26D3F3C
:1007E20015EFC3BE5E836C3F53B9C9BE0C4B6B3F62
:1007F200CA7BCFBEA7096A3F4136D5BE3CBF683F20
:1008020080E8DABED86B673F4F92E0BE880F663F42
:100812007533E6BE59AA643FBBCBEBBE5A3C633F7D
:10082200EA5AF1BE98C5613FCBE0F6BE2146603F71
:10083200275DFCBE05BE5E3FE4E700BF532D5D3F72
:100842003D9C03BF1A945B3F824B06BF6AF2593F3D
:100852009BF508BF5348583F6B9A0BBFE595563F2F
:10086200DA390EBF31DB543FCDD310BF4918533FA5
:100872002A6813BF3D4D513FD9F615BF1F7A4F3F2E
:10088200C07F18BF029F4D3FC6021BBFF8BB4B3F44
:10089200D17F1DBF12D1493FCBF61FBF65DE473F57
:1008A200996722BF03E4453F25D224BF00E2433FBC
:1008B200563627BF70D8413F159429BF67C73F3FBF
:1008C2004AEB2BBFF9AE3D3FDE3B2EBF3B8F3B3F9A
:1008D200BB8530BF4268393FC9C832BF233A373F70
:1008E200F30435BFF304353F233A37BFC9C8323F5B
:1008F200426839BFBB85303F3B8F3BBFDE3B2E3F5B
:10090200F9AE3DBF4AEB2B3F67C73FBF1594293F66
:1009120070D841BF5636273F00E243BF25D2243F5D
:1009220003E445BF9967223F65DE47BFCBF61F3F11
:1009320012D149BFD17F1D3FF8BB4BBFC6021B3F3F
:10094200029F4DBFC07F183F1F7A4FBFD9F6153F98
:100952003D4D51BF2A68133F491853BFCDD3103FB5
:1009620031DB54BFDA390E3FE59556BF6B9A0B3F28
:10097200534858BF9BF5083F6AF259BF824B063F66
:100982001A945BBF3D9C033F532D5DBFE4E7003FDC
:1009920005BE5EBF275DFC3E214660BFCBE0F63E52
:1009A20098C561BFEA5AF13E5A3C63BFBBCBEB3EEE
:1009B20059AA64BF7533E63E880F66BF4F92E03E88
:1009C200D86B67BF80E8DA3E3CBF68BF4136D53E90
:1009D200A7096ABFCA7BCF3E0C4B6BBF53B9C93E56
:1009E2005E836CBF15EFC33E93B26DBF4A1DBE3E20
:1009F2009ED86EBF2A44B83E73F56FBFEF63B23E16
:100A0200080971BFD47CAC3E521372BF128FA63E4E
:100A1200471473BFE59AA03EDD0B74BF86A09A3ED1
:100A22000BFA74BF31A0943EC6DE75BF229A8E3E89
:100A320007BA76BF938E883EC58B77BFC07D823E54
:100A4200F85378BFCCCF783E981279BF7F9A6C3E2C
:100A52009DC779BF135C603E02737ABF0115543E95
:100A6200BE147BBFC2C5473ECDAC7BBFCF6E3B3E03
:100A7200283B7CBFA2102F3EC9BF7CBFB6AB223E33
:100A8200AC3A7DBF8340163ECCAB7DBF86CF093EDC
:100A920024137EBF73B2FA3DB0707EBF2EBCE13D1F
:100AA2006DC47EBF36BDC83D580E7FBF80B6AF3D18
:100AB2006D4E7FBF05A9963DAB847FBF742B7B3DF6
:100AC2000FB17FBF30FB483D97D37FBF2CC3163D8C
:100AD20043EC7FBFB00AC93C11FB7FBF900E493C7B
:100AE200000080BF0000000011FB7FBF900E49BCD8
:100AF20043EC7FBFB00AC9BC97D37FBF2CC316BDDE
:100B02000FB17FBF30FB48BDAB847FBF742B7BBD71
:100B12006D4E7FBF05A996BD580E7FBF80B6AFBD93
:100B22006DC47EBF36BDC8BDB0707EBF2EBCE1BDF8
:100B320024137EBF73B2FABDCCAB7DBF86CF09BE94
:100B4200AC3A7DBF834016BEC9BF7CBFB6AB22BEE6
:100B5200283B7CBFA2102FBECDAC7BBFCF6E3BBE6D
:100B6200BE147BBFC2C547BE02737ABF011554BE15
:100B72009DC779BF135C60BE981279BF7F9A6CBE25
:100B8200F85378BFCCCF78BEC58B77BFC07D82BE0D
:100B920007BA76BF938E88BEC6DE75BF229A8EBE16
:100BA2000BFA74BF31A094BEDD0B74BF86A09ABE4F
:100BB200471473BFE59AA0BE521372BF128FA6BE2E
:100BC200080971BFD47CACBE73F56FBFEF63B2BED0
:100BD2009ED86EBF2A44B8BE93B26DBF4A1DBEBE38
:100BE2005E836CBF15EFC3BE0C4B6BBF53B9C9BE5E
:100BF200A7096ABFCA7BCFBE3CBF68BF4136D5BE1C
:100C0200D86B67BF80E8DABE880F66BF4F92E0BE3E
:100C120059AA64BF7533E6BE5A3C63BFBBCBEBBE79
:100C220098C561BFEA5AF1BE214660BFCBE0F6BE6D
:100C320005BE5EBF275DFCBE532D5DBFE4E700BF6E
:100C42001A945BBF3D9C03BF6AF259BF824B06BF39
:100C5200534858BF9BF508BFE59556BF6B9A0BBF2B
:100C620031DB54BFDA390EBF491853BFCDD310BFA1
:100C72003D4D51BF2A6813BF1F7A4FBFD9F615BF2A
:100C8200029F4DBFC07F18BFF8BB4BBFC6021BBF40
:100C920012D149BFD17F1DBF65DE47BFCBF61FBF53
:100CA20003E445BF996722BF00E243BF25D224BFB8
:100CB20070D841BF563627BF67C73FBF159429BFBB
:100CC200F9AE3DBF4AEB2BBF3B8F3BBFDE3B2EBF96
:100CD200426839BFBB8530BF233A37BFC9C832BF6C
:100CE200F30435BFF30435BFC9C832BF233A37BF57
:100CF200BB8530BF426839BFDE3B2EBF3B8F3BBF57
:100D02004AEB2BBFF9AE3DBF159429BF67C73FBF62
:100D1200563627BF70D841BF25D224BF00E243BF59
:100D2200996722BF03E445BFCBF61FBF65DE47BF0D
:100D3200D17F1DBF12D149BFC6021BBFF8BB4BBF3B
:100D4200C07F18BF029F4DBFD9F615BF1F7A4FBF94
:100D52002A6813BF3D4D51BFCDD310BF491853BFB1
:100D6200DA390EBF31DB54BF6B9A0BBFE59556BF24
:100D72009BF508BF534858BF824B06BF6AF259BF62
:100D82003D9C03BF1A945BBFE4E700BF532D5DBFD8
:100D9200275DFCBE05BE5EBFCBE0F6BE214660BF4E
:100DA200EA5AF1BE98C561BFBBCBEBBE5A3C63BFEA
:100DB2007533E6BE59AA64BF4F92E0BE880F66BF84
:100DC20080E8DABED86B67BF4136D5BE3CBF68BF8C
:100DD200CA7BCFBEA7096ABF53B9C9BE0C4B6BBF52
:100DE20015EFC3BE5E836CBF4A1DBEBE93B26DBF1C
:100DF2002A44B8BE9ED86EBFEF63B2BE73F56FBF12
:100E0200D47CACBE080971BF128FA6BE521372BF4A
:100E1200E59AA0BE471473BF86A09ABEDD0B74BFCD
:100E220031A094BE0BFA74BF229A8EBEC6DE75BF85
:100E3200938E88BE07BA76BFC07D82BEC58B77BF50
:100E4200CCCF78BEF85378BF7F9A6CBE981279BF28
:100E5200135C60BE9DC779BF011554BE02737ABF91
:100E6200C2C547BEBE147BBFCF6E3BBECDAC7BBFFF
:100E7200A2102FBE283B7CBFB6AB22BEC9BF7CBF2F
:100E8200834016BEAC3A7DBF86CF09BECCAB7DBFD8
:100E920073B2FABD24137EBF2EBCE1BDB0707EBF1B
:100EA20036BDC8BD6DC47EBF80B6AFBD580E7FBF14
:100EB20005A996BD6D4E7FBF742B7BBDAB847FBFF2
:100EC20030FB48BD0FB17FBF2CC316BD97D37FBF88
:100ED200B00AC9BC43EC7FBF900E49BC11FB7FBF77
:100EE20000000000000080BF900E493C11FB7FBF54
:100EF200B00AC93C43EC7FBF2CC3163D97D37FBFDA
:100F020030FB483D0FB17FBF742B7B3DAB847FBF6D
:100F120005A9963D6D4E7FBF80B6AF3D580E7FBF8F
:100F220036BDC83D6DC47EBF2EBCE13DB0707EBFF4
:100F320073B2FA3D24137EBF86CF093ECCAB7DBF90
:100F42008340163EAC3A7DBFB6AB223EC9BF7CBFE2
:100F5200A2102F3E283B7CBFCF6E3B3ECDAC7BBF69
:100F6200C2C5473EBE147BBF0115543E02737ABF11
:100F7200135C603E9DC779BF7F9A6C3E981279BF21
:100F8200CCCF783EF85378BFC07D823EC58B77BF09
:100F9200938E883E07BA76BF229A8E3EC6DE75BF12
:100FA20031A0943E0BFA74BF86A09A3EDD0B74BF4B
:100FB200E59AA03E471473BF128FA63E521372BF2A
:100FC200D47CAC3E080971BFEF63B23E73F56FBFCC
:100FD2002A44B83E9ED86EBF4A1DBE3E93B26DBF34
:100FE20015EFC33E5E836CBF53B9C93E0C4B6BBF5A
:100FF200CA7BCF3EA7096ABF4136D53E3CBF68BF18
:1010020080E8DA3ED86B67BF4F92E03E880F66BF3A
:101012007533E63E59AA64BFBBCBEB3E5A3C63BF75
:10102200EA5AF13E98C561BFCBE0F63E214660BF69
:10103200275DFC3E05BE5EBFE4E7003F532D5DBF6A
:101042003D9C033F1A945BBF824B063F6AF259BF35
:101052009BF5083F534858BF6B9A0B3FE59556BF27
:10106200DA390E3F31DB54BFCDD3103F491853BF9D
:101072002A68133F3D4D51BFD9F6153F1F7A4FBF26
:10108200C07F183F029F4DBFC6021B3FF8BB4BBF3C
:10109200D17F1D3F12D149BFCBF61F3F65DE47BF4F
:1010A2009967223F03E445BF25D2243F00E243BFB4
:1010B2005636273F70D841BF1594293F67C73FBFB7
:1010C2004AEB2B3FF9AE3DBFDE3B2E3F3B8F3BBF92
:1010D200BB85303F426839BFC9C8323F233A37BF68
:1010E200F304353FF30435BF233A373FC9C832BF53
:1010F2004268393FBB8530BF3B8F3B3FDE3B2EBF53
:10110200F9AE3D3F4AEB2BBF67C73F3F159429BF5E
:1011120070D8413F563627BF00E2433F25D224BF55
:1011220003E4453F996722BF65DE473FCBF61FBF09
:1011320012D1493FD17F1DBFF8BB4B3FC6021BBF37
:10114200029F4D3FC07F18BF1F7A4F3FD9F615BF90
:101152003D4D513F2A6813BF4918533FCDD310BFAD
:1011620031DB543FDA390EBFE595563F6B9A0BBF20
:101172005348583F9BF508BF6AF2593F824B06BF5E
:101182001A945B3F3D9C03BF532D5D3FE4E700BFD4
:1011920005BE5E3F275DFCBE2146603FCBE0F6BE4A
:1011A20098C5613FEA5AF1BE5A3C633FBBCBEBBEE6
:1011B20059AA643F7533E6BE880F663F4F92E0BE80
:1011C200D86B673F80E8DABE3CBF683F4136D5BE88
:1011D200A7096A3FCA7BCFBE0C4B6B3F53B9C9BE4E
:1011E2005E836C3F15EFC3BE93B26D3F4A1DBEBE18
:1011F2009ED86E3F2A44B8BE73F56F3FEF63B2BE0E
:101202000809713FD47CACBE5213723F128FA6BE46
:101212004714733FE59AA0BEDD0B743F86A09ABEC9
:101222000BFA743F31A094BEC6DE753F229A8EBE81
:1012320007BA763F938E88BEC58B773FC07D82BE4C
:10124200F853783FCCCF78BE9812793F7F9A6CBE24
:101252009DC7793F135C60BE02737A3F011554BE8D
:10126200BE147B3FC2C547BECDAC7B3FCF6E3BBEFB
:10127200283B7C3FA2102FBEC9BF7C3FB6AB22BE2B
:10128200AC3A7D3F834016BECCAB7D3F86CF09BED4
:1012920024137E3F73B2FABDB0707E3F2EBCE1BD17
:1012A2006DC47E3F36BDC8BD580E7F3F80B6AFBD10
:1012B2006D4E7F3F05A996BDAB847F3F742B7BBDEE
:1012C2000FB17F3F30FB48BD97D37F3F2CC316BD84
:1012D20043EC7F3FB00AC9BC11FB7F3F900E49BC73
:1012E2001027E80364000A0001000010000110004A
:1012F200010000007F4385B105B990D0030063610E
:101302006C6962726174650053616D706C696E67BD
:101312002046726571203D004B487A005365742067
:1013220053616D7020467265713A0050657244696E
:10133200762056616C002020200053657420506591
:10134200724469762056616C3A004D696E2056618E
:101352006C00536574204D696E2056616C3A0047EB
:1013620061696E203D2000536574204761696E3AC1
:1013720020004D7A5A0080C001002D4E414E004996
:101382004E46000004000C3AF4120400103AF8121F
:101392000300183AFC120200203A78130100273A9F
:1013A2007A130000F894EE27E8BFE9BFEABFF09194
:1013B200CC01F860F093CC01F8EDF4BFE093A20009
:1013C200E0934004A0918000AD7FA160F4BFA093A0
:1013D200800080E090E2A0E0B0E2ED930197E9F7AF
:1013E200E6E8F3E185919591009761F0A591B591B9
:1013F20005901590BF01F00105900D920197E1F75C
:10140200FB01F0CF8BBFE0E0E0B9E1B9E2B9E3B9AB
:10141200E4B9E5B9E6B9E7B9E8B9E9B9EAB9EBB9C6
:10142200ECB9EDB9EEB9EFB92E2E3E2E4E2E5E2E50
:101432006E2E7E2EE1E08E2EE0E09E2EAE2EBE2E91
:10144200CE2EDE2EEFEFEDBFEFE3EEBFC0E0D8E22F
:101452000C94D9181A930A930FB7F894EBECE09313
:101462005200E0915000E860E0935000E09151009A
:10147200E870E1F3E0915500E072E26C1E2FE8EDB6
:10148200E4BF10935500E0915000E061E0935000FA
:10149200E0914100E0781E2FE8EDE4BF1093410097
:1014A200E0915100E071E1F3E0914000E87FE460F7
:1014B2001E2FE8EDE4BF10934000E0915000E87F5A
:1014C200E0935000E091B400EC7FE093B4000FBFD2
:1014D200EDC3E0E0E0930406E0930006E09310061B
:1014E200E0931106E0931206E0931306E0931406CC
:1014F200E0931506E0931606E0931706E0910906BD
:10150200E07FE0930906E0E0E0930A06E0930B0631
:10151200E0932406E0932006E0933006E093310640
:10152200E0933206E0933306E0933406E093350607
:10153200E0933606E0933706E0912906E07FE093D8
:101542002906E0E0E0932A06E0932B06E0934406A6
:10155200E0934006E0935006E0935106E093520672
:10156200E0935306E0935406E0935506E093560643
:10157200E0935706E0914906E07FE0934906E0E0F8
:10158200E0934A06E0934B06EFE0E0936406E093B3
:101592006006E0E1E0937006E0937106E093720664
:1015A200E0937306E1E1E0937406E0937506E0933D
:1015B2007606E0937706E0916906E07FE360E093C8
:1015C2006906E0EFE0936A06E0E0E0936B06E093E1
:1015D2008406E0938006E0939006E0939106E09300
:1015E2009206E0939306E0939406E0939506E093C7
:1015F2009606E0939706E0918906E07FE0938906DC
:10160200E0E0E0938A06E0938B06E8E0E093A4062C
:10161200E093A006E0E0E093B006E093B106E09329
:10162200B206E093B306E093B406E093B506E09306
:10163200B606E093B706E091A906E07FE093A9061B
:10164200E0E0E093AA06E093AB06E093E406EFEF56
:10165200E093E006E0E0E093F006E093F106E09329
:10166200F206E093F306E093F406E093F506E093C6
:10167200F606E093F706E091E906E07FE093E906DB
:10168200E0E0E093EA06E093EB06E0930407EFEF75
:10169200E0930007E0E0E0931007E0931107E09386
:1016A2001207E0931307E0931407E0931507E09302
:1016B2001607E0931707E0910907E07FE093090717
:1016C200E0E0E0930A07E0930B07E0932407EFEFD3
:1016D200E0932007E0E0E0933007E0933107E093E6
:1016E2003207E0933307E0933407E0933507E09342
:1016F2003607E0933707E0912907E07FE093290757
:10170200E0E0E0932A07E0932B07E093C407E0931D
:10171200C007E093D007E093D107E093D207E093AC
:10172200D307E091C907E07FE093C907E0E0E093C7
:10173200CA07E093CB07E093E407E093E007E09366
:10174200F007E093F107E091E907E07FE093E90712
:10175200E0E0E093EA07E093EB070895E0E1E0932D
:10176200B200E2E3E093B3000895BA93AA93A8818A
:10177200B981EC91E07FEC931996ECE0EC931DC1FA
:10178200BA93AA93A881B981EC91E07FEC93199660
:10179200ECE0EC9312C11A931FB7F894A0E0B9E001
:1017A200E4DFE0910009E07FE760E0930009E09167
:1017B2000109E870E0930109E0910309E071E09307
:1017C2000309E0910609E07FE260E0930609E091F7
:1017D2000709E070E0930709E0919009EE7FE0933A
:1017E2009009E0910C09E0930C09E0E0F0E0E0934D
:1017F2002009F0932109E1E1FAE7E0932609F09349
:101802002709E0E0F0E0E0932809F0932909E0934A
:101812002A09F0932B09E0932C09F0932D09E09308
:101822002E09F0932F097CC3E0E0E0930009E0E089
:10183200F0E0E0932009F0932109E1E0E0930C0944
:101842000895E7E0E093000908951A930A931FB7F9
:10185200F894A0E0B8E089DFE0910008E07FE16061
:10186200E0930008E0910108E870E0930108E0913C
:101872000308E071E0930308E0910608E07FE0933B
:101882000608E0910708E070E0930708E0919008ED
:10189200EE7FE0939008E0919900EE7F0E2FE8ED45
:1018A200E4BF00939900E0918008E07CE093800817
:1018B200E0918308E87EE0938308E0E0E093820809
:1018C200A4E8B8E00A2EAC91E0918408E470EA2B17
:1018D200A02DEC93E0910C08E0930C08E0E0F0E01E
:1018E200E0932008F0932108EFE0F0E0E09326086F
:1018F200F0932708E0E0F0E0E0932808F09329084D
:10190200E0932A08F0932B08E0932C08F0932D081B
:10191200E0932E08F0932F08C8C130900008E0E051
:10192200E0930008E0E0F0E0E0932008F093210863
:101932000895309200080895E0E0E0938001E0937A
:101942008101E0938201E0938301E0938401E093BB
:101952008501E0938601E0ECE0938701E091880144
:10196200E078E0938801E0E0E0938901E0918A0168
:10197200E078E0938A01E0E0E0938B01E0918C0152
:10198200E078E0938C01E0E0E0938D01E0938E013A
:10199200E0938F01E091B400EF7CE093B4000895EE
:1019A200AA931A93E2E0E093CA01E981F0E014916C
:1019B200E0E0E093CA01E12F188122960895AA93EC
:1019C2000E945D21A0E2ECDFE0930C02A1E2E8DFDD
:1019D200E0930D02E0910102E17EE061E0930102F9
:1019E200E0910402E87FE260E0930402E0910202E7
:1019F200EE7CE062E0930202E0912002E076AC81AC
:101A0200EA2BE260E0932002E0912102E478E09385
:101A12002102E0910002E160E093000285E38A95F1
:101A2200F1F720E030E010E01031A8F4E09120025C
:101A3200E068E0932002E0912302E170E1F3E1E04B
:101A4200E0932302E0912402F0E0E7FDFFEF2E0F86
:101A52003F1F1F5FE9CFE0910002EE7FE09300029B
:101A6200F9010E943C20F0E0F0E0E7FDFFEF2F01DA
:101A7200E0E0E0931802E0931902E0912002E076A0
:101A8200AC81EA2BE360E0932002E0912102E4784A
:101A9200E561E0932102E9E3E0930302E09122028F
:101AA200E07FE0932202E0912A02E07FE0932A02A3
:101AB200E0913202E07FE0933202E0913A02E07F6D
:101AC200E0933A02E0910002E160E093000285E1D6
:101AD2008A95F1F70E94642125960895E0E0E0934B
:101AE2000001E0910001E078E1F7E0E4E093000119
:101AF200E0910001E074E1F70895E0E0E093100165
:101B0200E0911001E078E1F7E0E4E0931001E09168
:101B12001001E074E1F70895E1DFEFDF0895E5E9F0
:101B2200E0931201E0E1E0931301E0E0F4E0E093DE
:101B32001401F0931501E1E0E0931601E4E2F2E012
:101B420060E070E0E0931801F093190160931A01CC
:101B520070931B01E0E0FCE266277727E0931C010B
:101B6200F0931D0160931E0170931F01E3E0E09367
:101B72001101E1E8E0931001E3E8E0930001089528
:101B82000A921A92FA926A937A938A939A93AA93EE
:101B9200BA93EA93FA93EFB7EA93C1DFCADEE1E0C0
:101BA20010C00A921A92FA926A937A938A939A933B
:101BB200AA93BA93EA93FA93EFB7EA93AEDEACDF55
:101BC200E2E02E2EE991EFBFF991E991B991A99145
:101BD2009991899179916991F99019900990189543
:101BE2001A930A931FB7F894A0E0BAE0BEDDE0E0D2
:101BF200E093000AE091010AE870E093010AE091A3
:101C0200030AE071E093030AE091060AE07FE260D2
:101C1200E093060AE091070AE070E093070AE09178
:101C2200900AEE7FE093900AE0919900EB7F0E2FED
:101C3200E8EDE4BF00939900E091800AE07CE09334
:101C4200800AE091830AE87EE093830AE0E0E09371
:101C5200820AA4E8BAE00A2EAC91E091840AE47008
:101C6200EA2BA02DEC93E0910C0AE0930C0AE0E041
:101C7200F0E0E093200AF093210AEFE9F0E0E0932C
:101C8200260AF093270AE0E0F0E0E093280AF093B6
:101C9200290AE0932A0AF0932B0AE0932C0AF09384
:101CA2002D0AE0932E0AF0932F0A1FBF0991199172
:101CB2000895E0E0E093000A7724662499248824BA
:101CC200E0E0F0E0E093200AF093210A0895E1E0D9
:101CD200E093000A08951A931FB7F894A0E4BAE0BB
:101CE2004FDDE0E0E093400AE091410AE87CE093B6
:101CF200410AE091430AE071E093430AE091460A07
:101D0200E07FE360E093460AE091470AE07FE093D8
:101D1200470AE091900AED7FE093900AE0914C0A25
:101D2200E0934C0AE0E0F0E0E093600AF093610A8D
:101D3200EFE7F0E0E093660AF093670AE0E0F0E094
:101D4200E093680AF093690AE0936A0AF0936B0AD7
:101D5200E7C0E0E001C0E1E0E093400A0895EA93C1
:101D6200FA93EFB7EA938092240790920407609265
:101D7200E40683948B1498F07394E72DE295E07F48
:101D82006E2EE72DE295EF709E2EE72DF0E0E050EB
:101D9200F84C8080E72DF0E0E050F74CB080E991FC
:101DA200EFBFF991E9911895AA93BA93EA93FA933E
:101DB200EFB7EA93E091043AA091013AEA2BE0935B
:101DC2000407E091033AE093E406E091023AE093DB
:101DD2002407E091003AF0E0309789F4A091033AA9
:101DE200B091043A1196A093033AB093043AAF3FEC
:101DF200EFE0BE0719F4E1E0E093003A42C0E130BF
:101E0200A0E0FA07A9F4E091013AF091023A709643
:101E1200E093013AF093023AA091013AB091023A6A
:101E2200A03FEFEFBE0719F4E2E0E093003A29C0C9
:101E3200E230A0E0FA0779F4A091033AB091043AB3
:101E42001197A093033AB093043A119719F4E3E07F
:101E5200E093003A16C0E330A0E0FA0791F4E09173
:101E6200013AF091023A7097E093013AF093023A04
:101E7200A091013AB091023A509719F4E0E0E09350
:101E8200003AE991EFBFF991E991B991A9911895B9
:101E92001A931FB7F894A0E0BBE067DCE091000B57
:101EA200E07FE560E093000BE091010BE870E093C6
:101EB200010BE091030BE071E093030BE091060B41
:101EC200E07FE160E093060BE091070BE070E093A6
:101ED200070BE091900BEE7FE093900BE0910C0BDF
:101EE200E0930C0BE0E0F0E0E093200BF093210B89
:101EF200E7EAF1E6E093260BF093270BE0E0F0E04F
:101F0200E093280BF093290BE0932A0BF0932B0B11
:101F1200E0932C0BF0932D0BE0932E0BF0932F0BF1
:101F22001FBF199108950E94C61AA0E0B3E10E9452
:101F32000D1BBFDE79DCF1DCEFDD0DDF0895AA9326
:101F4200A091083AA53010F0A83040F0E0E0E0930C
:101F52000A3AE0930B3AE093093A7AC0A091063A22
:101F6200AA3028F4EA81A091093AAE1708F01DC000
:101F7200E0910A3AF0910B3AAAE0B0E00E94772091
:101F8200DF01E091063AF0E0EA0FFB1FE0930A3A24
:101F9200F0930B3AA091063AA05D0E94DA1AE09102
:101FA200093AEF5FE093093A53C0A091063AAA308A
:101FB20021F4A091093AA13008F421C0A0910A3A73
:101FC200B0910B3AEAE0F0E00E948F20E0930A3AE7
:101FD200F0930B3AE091093AE150E093093AA98172
:101FE200EA0FEA93A9810E94B51AE091093AE0301A
:101FF20011F0A0E201C0AFE30E94DA1A21C0A09161
:10200200063AAF3019F4EB81E03009F421C0E091D7
:102012000A3AF0910B3A0E942020E0930A3AF09398
:102022000B3AE981E150EA93A9810E94B51AA09185
:102032000B3AAA2312F4ADE201C0A0E20E94DA1A1E
:10204200E091093AA981EA0FEA93A9810E94B51A9F
:10205200E0910A3AF0910B3A0E944A2024C1259756
:102062001A930A93E091093AE03021F0A091063ADE
:10207200AE3009F023C0E0E0EA93EA93EA93A0E0ED
:102082005EDF8F01013DE7E01E0710F000ED17E073
:10209200002E012A11F401E010E0C6DB3EDC3CDD3B
:1020A200F801A0E0BDE70E947C203197E09326086A
:1020B200F093270834DD3DDCC4DB09C0E091083A27
:1020C200E03029F446DE2BDD34DCBBDB00DEE091C0
:1020D2002608F091270866277727EF5FFF4F6F4F9B
:1020E2007F4FA0E0BDE780E090E00E949420FA9349
:1020F200EA93DE0114960E94A81D0E94C61AAAE065
:10210200B3E10E940D1BE0E0EA93A1E00E94B51A40
:10211200DE0112960E94FE1AE5E0EA93A1E00E9417
:10212200B51AAAE1B3E10E940D1B19810881279615
:102132000895A091083AA530A1F00E94C61AAEE116
:10214200B3E10E940D1BE5E0EA93A1E00E94B51AFB
:10215200AAE1B3E10E940D1BE0E0EA93A1E00E9434
:10216200B51AE0E0EA93E4E0EA93E0E0A1C2E0918C
:10217200183AF091193A60911A3A70911B3A0E94FA
:10218200D71EA0E0B0E08FEF91EC0E94B11FE09368
:10219200103AF093113A6093123A7093133AE09125
:1021A200143AF091153A6091163A7091173A0E94DA
:1021B200D91EA0E0B0E08FE793E40E94631FDF0125
:1021C200CB01E0E0F0E060E071E40E94B11FDF01CA
:1021D200CB01E091183AF091193A60911A3A709154
:1021E2001B3A0E94D71E0E94B11FA0E0B0E08FE709
:1021F20093E40E94131FE0930C3AF0930D3A60931C
:102202000E3A70930F3A08950E9423210E940A21E8
:102212000E941E21A0E0B0E080E09FE30E94311DF9
:10222200A0E0B4E284E799E40E94631F3CC00E94EC
:1022320023210E940A210E941E21A0E0B0E080E03A
:102242009FE30E94311DA0E0B0E08AE794E40E947F
:10225200631F29C00E9423210E940F210E945A1C41
:10226200A0E0B0E080E291E40E94631FDF01CB01B5
:10227200E8EEFAEE67E871E40E9430210E940C1F3A
:1022820012C00E9423210E940F210E945A1CA0E02A
:10229200B0E080E291E40E94631FA0E3BAE280E52D
:1022A20091E40E94131F249608952997E091093A18
:1022B200E03021F0A091063AAE3009F06EC0E0E0C5
:1022C200EA93EA93EA93A0E03ADEE093183AF093B5
:1022D200193A60931A3A70931B3AA8E0B0E080E092
:1022E20090E00E9457207F936F93FF93EF93E091CA
:1022F2001C3AAFE0EA9FF001EC5FFD4F34960E947A
:1023020004217F936F93FF93EF93E0911C3AEA9F2E
:10231200F001EC5FFD4F0E940421AF91BF918F91BC
:102322009F910E9430210E941620AF91BF918F9100
:102332009F910E94512130F5E0911C3AAFE0EA9F53
:10234200F001EC5FFD4FDF0134960E9404217F9380
:102352006F93FF93EF93FD010E940421AF91BF9110
:102362008F919F910E941B20E8E0F0E060E070E016
:102372000E94B920E093183AF093193A60931A3AFE
:1023820070931B3A51DAC9DAC7DBF1DEE0911C3AED
:10239200E0931D3AC4DBCDDA54DAE091183AF091B9
:1023A200193A60911A3A70911B3A0E941E21DE017D
:1023B20014960E94D61D0E94C61AADE2B3E129C14D
:1023C200A091063AAC3091F5E0911C3AAFE0EA9F59
:1023D200F001EC5FFD4F3C96E491EE5FEA93A1E0E1
:1023E2000E94B51AA8E3B3E10E940D1BE0911C3ACA
:1023F200EF5FE0931C3AE370E0931C3AAFE0EA9F90
:10240200F001EC5FFD4F3C96E491EE5FEA93A1E0B0
:102412000E94B51AE0911C3AAFE0EA9FF001EC5F2E
:10242200FD4F3896DF010E940D1B3CC0A091083A77
:10243200A63041F1E0911D3AE0931C3A0E94C61A7F
:10244200ACE3B3E10E940D1BE0911C3AAFE0EA9FBE
:10245200F001EC5FFD4F3C96E491EE5FEA93A1E060
:102462000E94B51AE0911C3AAFE0EA9FF001EC5FDE
:10247200FD4F3896DF010E940D1BE1E0EA93A1E0D7
:102482000E94B51AE0E0EA93E0911C3AAFE0EA9FBD
:10249200F001EC5FFD4F3C96E491EA93E1E0EA93B0
:1024A200A1E04DDD08952997E091093AE03021F04D
:1024B200A091063AAE3009F09AC0E0E0EA93EA93BE
:1024C200EA93A0E03CDDE093143AF093153A60936E
:1024D200163A7093173AE0911D3AAFE0EA9FF00185
:1024E200EC5FFD4F0E940421A091143AB091153A7D
:1024F2008091163A9091173A0E94562194F4E091F5
:102502001D3AAFE0EA9FF001EC5FFD4F0E9404210B
:10251200E093143AF093153A6093163A7093173A8F
:102522005DC0E0911D3AAFE0EA9FF001EC5FFD4F24
:10253200DF010E9404217F936F93FF93EF93FD01CC
:1025420034960E9404217F936F93FF93EF93E0915F
:10255200183AF091193A60911A3A70911B3AA8E030
:10256200B0E080E090E00E945720AF91BF918F9140
:102572009F910E9430210E941620AF91BF918F91AE
:102582009F910E94512150F5E0911D3AAFE0EA9FE0
:10259200F001EC5FFD4F34960E9404217F936F930C
:1025A200FF93EF93E091183AF091193A60911A3A39
:1025B20070911B3AA8E0B0E080E090E00E945720C2
:1025C200AF91BF918F919F910E941B20A093143ACB
:1025D200B093153A8093163A9093173A0E94150CCD
:1025E2009CD99ADAC4DD9BDAA4D90E94220CE0912C
:1025F200143AF091153A6091163A7091173A0E9486
:102602001E21DE0114960E94D61D0E94C61AACE459
:10261200B3E10E940D1BE0E0EA93A1E00E94B51A2B
:10262200DE010E94FE1AA0E20E94DA1AE0911D3A2F
:10263200AFE0EA9FF001EC5FFD4F3896DF010E94A8
:102642000D1B29960895A091083AA63021F10E9407
:10265200C61AA4E5B3E10E940D1BE0911D3AAFE05A
:10266200EA9FF001EC5FFD4F3C96E491EE5FEA9346
:10267200A1E00E94B51AE0911D3AAFE0EA9FF00195
:10268200EC5FFD4F3896DF010E940D1BE1E0EA93FB
:10269200A1E00E94B51AE1E0EA93E0911D3AAFE0B1
:1026A200EA9FF001EC5FFD4F3C96E491EA93E1E092
:1026B200EA93A1E044DC08952397A091083AA83058
:1026C20051F4E0911F3AA0911E3AEA1721F0A0912D
:1026D200063AAE3009F014C0E0911F3AE0931E3A78
:1026E2000E94150C0E948E0C17DAE0911E3AEE0F32
:1026F200EE0FAE2F64D913DA0E949A0C0E94220CBC
:10270200E0911E3AA1E0B0E00E942C20FA93EA93F5
:10271200DE0112960E94A81D0E94C61AA1E6B3E12C
:102722000E940D1BDE010E94FE1A23960895239734
:10273200A091083AA83059F0E0911E3AE0931F3A6E
:102742000E94C61AA9E6B3E10E940D1B21C0A09106
:10275200063AA93069F4E0911F3AEF5FE0931F3A1D
:10276200A0911F3ABB27E7E0F0E00E94BE200EC016
:10277200A091063AA73061F4E0911F3AE150E0934C
:102782001F3AA0911F3AA73018F0E0E0E0931F3AF9
:10279200EAE0EA93A0E00E94B51AA9E3B3E10E943D
:1027A2000D1BEAE0EA93A0E00E94B51AE0911F3AFD
:1027B200A1E0B0E00E942C20FA93EA93DE01129687
:1027C2000E94A81DDE010E94FE1A0C941E1BE091BD
:1027D200083AA2E1EA9FF001E05CFD4F3296DF0188
:1027E200E091063AF0E0EA0FFB1F04900092073AEC
:1027F200A091073AA93071F0E091073AA2E1EA9F6D
:10280200F001E05CFD4F0E9400210995E091073A3A
:10281200E093083A0895EA93FA93EFB7EA93E091C6
:102822006806E295EF70AE2EE0E0E0936A06E1E022
:10283200E0936C06E0E0F0E0E093200BF093210BD4
:10284200E091000BE07FE560E093000BE991EFBFC0
:10285200F991E99118950A921A92FA926A937A93E7
:102862008A939A93AA93BA93EA93FA93EFB7EA9365
:10287200E0E0E093000BE1E0F0E0E093200BF09366
:10288200210BE0916806F0E00E943C20EF70F070AE
:10289200DF01EA2DF0E0EA17FB0711F00C94A01417
:1028A200E0EFE0936006E0936406E0916806EF7063
:1028B200CE2EEA2DF0E0E130A0E0FA0711F4DD249B
:1028C20012C0E230A0E0FA0711F4E1E00BC0E430FC
:1028D200A0E0FA0711F4E2E005C0E830A0E0FA0750
:1028E20011F4E3E0DE2EEC2DF0E0E095F095EF70D0
:1028F200F070E130A0E0FA0711F4CC2412C0E2300B
:10290200A0E0FA0711F4E1E00BC0E430A0E0FA071E
:1029120011F4E2E005C0E830A0E0FA0711F4E3E0C8
:10292200CE2EED2DEE0FEE0FEC29EF70E093053A6F
:10293200F0E0EC50FE4F04900092063A48DFEFE0E0
:10294200E0936006E0936406E1E0E0936C06E0EF5A
:10295200E0936A06E991EFBFF991E991B991A991E2
:102962009991899179916991F990199009901895A5
:10297200A885B985BF93AF930E94F5200E940F21CD
:102982000E94131FAF91BF910E94FB20E885F98539
:102992003496FF93EF93DF010E94F520AC81BD8155
:1029A2008E819F810E94131FAF91BF910E94FB20D5
:1029B2002A9608952497AC85BD850E94F520AC81A6
:1029C200BD818E819F810E94631F7F936F93FF93CE
:1029D200EF93EC85FD85A481B58186819781E88599
:1029E200F9856A857B850E94631FAF91BF918F91A4
:1029F2009F910E9430210E940C1F0E941421EC859D
:102A0200FD85A481B58186819781EC81FD816E81EE
:102A12007F810E94631F7F936F93FF93EF93AC8537
:102A2200BD850E94F520A885B9858A859B850E946F
:102A3200631FAF91BF918F919F910E94131FAC852D
:102A4200BD8514960E94FB200E940A21AC85BD859B
:102A52000E94FB2065C0BA93AA93A881B9810E9403
:102A6200F5200E946D1E0E94FB20A881B981149658
:102A72000E94F5200E946D1EA881B98114960E94C1
:102A8200FB200C94C41ABA93AA932897E885F98577
:102A92000E943520EE51FD4F0E9404210E94142114
:102AA200E885F9850E943520EE51FD4F34960E944B
:102AB2000421EC83FD836E837F83EA85FB85FA9391
:102AC200EA93FE013296A8E00E94282173DF2C9639
:102AD2000895BA93AA932897EA85FB85FA93EA9315
:102AE200AA85BB85D0DFEC85FD85DE0188E00E94EA
:102AF2003D21EC85FD85FA93EA93EC85FD85A8E0FE
:102B02000E94282135DFAA85BB85A5DFEA85FB85E2
:102B1200FA93EA93FE013296A8E00E94282128DF68
:102B22002E96089524970E945B2100E010E0093060
:102B3200E0E01E0710F00C94EC1520E030E02030AD
:102B4200E1E03E0710F00C94E915E02FA1E0B0E0BF
:102B52000E942C203197E223F323BF01F801319622
:102B62000E942C203197E095F095DF01F901EE0FDC
:102B7200FF1FEA23FB23E62BF72BAF01E02FA1E097
:102B8200B0E00E942C20E42BF52BE887F987E8E0DF
:102B9200F0E0E01BF10B0E942C20D9010E944F2093
:102BA200F070EE83FF83FA010E943520E050F84D69
:102BB200FA93EA93EA85FB850E943520E050F84DAE
:102BC200FA93EA93AA85BB8584DF2F5F3F4FB7CF85
:102BD2000F5F1F4FACCF0E9462210C94581CBA9316
:102BE200AA93AF93BF93CF93A881B981EE27FF2712
:102BF200C9E0B795A795EE1FFF1FCA95D1F7CF91F0
:102C0200BF91AF91C0C41A930A9300E010E0003064
:102C1200E2E01E07C8F4F801A0E0B8E2EE0FFF1FE1
:102C2200EA0FFB1FFF93EF93D801D9DFDF01AA0F51
:102C3200BB1FA050B44D0E94F120AF91BF91ED9304
:102C4200FC930F5F1F4FE3CFFAC01A930A930FEF63
:102C520011E0112312F40C948016F8010E94352021
:102C6200E050F84DFF93EF93F801A0E0B8E2EE0FC9
:102C7200FF1FAE0FBF1F0E94F120E419F5090E9449
:102C82004A200E94D91EA0E0B0E080E090E40E94B9
:102C9200631FDF01CB01E0E0F0E060E075E40E9439
:102CA200B11F7F936F93FF93EF93E0911E3AA1E0E0
:102CB200B0E00E942C20662777270E94D91EAF9190
:102CC200BF918F919F910E94B11FDF01CB01E0E084
:102CD200F0E060E074E40E94B11FAF91BF910E94E6
:102CE200FB20F8010E943520EC5FF74DA0E0B0E038
:102CF20080E090E00E94192101501040AACF9FC0AD
:102D02001A930A9300E010E00030E1E01E0710F091
:102D12000C94EA16F801A0E0B8E20E943720EA0F0C
:102D2200FB1FFF93EF93E0911D3AAFE0EA9FF001A2
:102D3200EC5FFD4F3D960E940021FF93EF93F80157
:102D42000E943520E050F84DDF010E94F5207F936C
:102D52006F93FF93EF93F8010E943520E050F84DF6
:102D6200DF010E94F520AF91BF918F919F910E9448
:102D7200631F7F936F93FF93EF93F8010E943520B7
:102D8200EC5FF74DDF010E94F5207F936F93FF9375
:102D9200EF93F8010E943520EC5FF74DDF010E94AE
:102DA200F520AF91BF918F919F910E94631FAF91C8
:102DB200BF918F919F910E94131FDF01CB01EF9171
:102DC200FF910995AF91BF910E94FB200F5F1F4FAA
:102DD2009BCF35C01A930A9300E010E00030E1E087
:102DE2001E0768F5F801A0E0B8E20E943720EA0F5A
:102DF200FB1FFF93EF93F801A0E0B8E20E94372097
:102E0200AE0FBF1F0E94F520A091103AB091113A67
:102E12008091123A9091133A0E94631FA0910C3A4A
:102E2200B0910D3A80910E3A90910F3A0E94131F81
:102E3200AF91BF910E94FB200F5F1F4FCFCF09912F
:102E4200199108950E9423210E940F21E0E0FDEFD5
:102E52006FEF76E40E94F61F20F0EFEFFFE70C948D
:102E62006F1C0E940F21E0E0FFEF6FEF76EC0E94F3
:102E7200F61F20F4E0E0F0E80C946F1CAB81AA236B
:102E820002F10E940F210E949A1B0E940F210E94B0
:102E920030210E940C1FDF01CB01E0E0F0E060E096
:102EA2007FE30E94F61F30F40E940A210E94A21EB4
:102EB2000C946F1C0E940A210E94A21E31960C944F
:102EC2006F1C0E940F210E949A1B0E940F210E94D8
:102ED20030210E940C1FDF01CB01E0E0F0E060E056
:102EE2007FE30E94F61F38F40E940A210E94A21E6C
:102EF20031970C946F1C0E940A210E94A21E0C940E
:102F02006F1C0E9423210E940A21AC81BD818E8107
:102F12009F810E94F61F09F010F40C94A617E0E0BE
:102F2200F0E06FE773E40E94F61F09F010F40C94CE
:102F32009C17EFEF55C0AF81AA2312F4E0E050C016
:102F4200AC81BD818E819F814AC00E940F21E0E049
:102F5200F0E06FE773E40E94F61F09F010F40C949E
:102F6200B417EFEF3DC0AB81AA2312F4E0E038C002
:102F720034C00E9423210E940A21AC81BD818E812E
:102F82009F810E94F61FB0F4E0E0F0E06FE773E487
:102F92000E94F61F09F010F40C94D117EFEF20C035
:102FA200AF81AA2312F4E0E01BC0AC81BD818E8107
:102FB2009F8115C00E940F21E0E0F0E06FE773E40B
:102FC2000E94F61F09F010F40C94E917EFEF08C005
:102FD200AB81AA2312F4E0E003C00E940F2132DF8A
:102FE200289608950E942321EC81FD816E817F81C4
:102FF200A885B9858A859B850E94F61F09F010F481
:103002000C940C180E940A210E94F61F09F010F479
:103012000C940C1801C01EC0A885B9858A859B85B1
:10302200E0E0F0E06FE773E40E94F61F09F010F4AD
:103032000C941E18EFEF0C94441EAB85AA231AF4CD
:10304200E0E00C94441EA885B9858A859B85FADE4A
:103052000C94441E0E940A21AC81BD818E819F8105
:103062000E94F61F09F010F40C945118E0E0F0E011
:103072006FE773E40E94F61F09F010F40C944418F1
:10308200EFEF0C94441EAF81AA231AF4E0E00C94F3
:10309200441EAC81BD818E819F81D4DE0C94441E7E
:1030A2000E940F21E0E0F0E06FE773E40E94F61F58
:1030B20009F010F40C946018EFEF0C94441EAB81ED
:1030C200AA231AF4E0E00C94441E0E940F21BADEF7
:1030D2000C94441E0E942321EC81FD816E817F812C
:1030E200A885B9858A859B850E94F61F28F40E94CF
:1030F2000A210E94F61F08F01EC0A885B9858A859C
:103102009B85E0E0F0E06FE773E40E94F61F09F0B0
:1031120010F40C948F18EFEF0C94441EAB85AA2385
:103122001AF4E0E00C94441EA885B9858A859B8533
:1031320089DE0C94441E0E940A21AC81BD818E81DD
:103142009F810E94F61FD0F4E0E0F0E06FE773E4A5
:103152000E94F61F09F010F40C94B218EFEF0C94D1
:10316200441EAF81AA231AF4E0E00C94441EAC8101
:10317200BD818E819F8166DE0C94441E0E940F21C8
:10318200E0E0F0E06FE773E40E94F61F09F010F44C
:103192000C94CE18EFEF0C94441EAB81AA231AF4C0
:1031A200E0E00C94441E0E940F214CDE0C94441E5D
:1031B200F894E091A200E873E7601E2FE8EDE4BF07
:1031C2001093A200E0E0E093A1000E942B0A0E946B
:1031D2009D0C0E946A0A0E94AF0B0E94260C0E945C
:1031E200CC0B0E94F10D0E946C0E0E94490FE091DF
:1031F2001E3AEE0FEE0FEC71AE2F0E94E00CA0E132
:103202001ED2A4EFB1E00E94461EBFD1A4E7B3E1F3
:1032120003D2A8EEB3E00E94461EB7D1E0E0F0E090
:10322200E093200BF093210BE1E0E0930C0BE0E044
:10323200E093000B0E94940F7894E2E0E215E9F724
:10324200E2DC03DD0E9493155BDDC4DDE3E02E2E9C
:10325200E0910028F09101286091022870910328E2
:103262000E941E21E0910428F09105286091062811
:1032720070910728A0910028B0910128809102281E
:10328200909103280E94131FA0E0B0E080E09FE32A
:103292000E94631FDF01CB0134DEE093FF39E0912E
:1032A2000028F091012860910228709103280E9461
:1032B2001E21E0910428F091052860910628709162
:1032C2000728A0910028B0910128809102289091AE
:1032D20003280E94131FA0E0B0E080E09FE30E9459
:1032E200631FDF01CB0145DEE093FF3821E030E0D0
:1032F2002F3FE0E03E0710F00C943E1AEFEFF0E0B3
:10330200E21BF30BE050F74CFF93EF93F901A0E0BF
:10331200B8E20E943720AE0FBF1F0E94F5200E9424
:103322001E21F901A0E0B8E20E943720AE0FBF1FB4
:103332000E94F5207F936F93FF93EF93D9010E9430
:103342004520AC5FB74D0E94F520AF91BF918F91A0
:103352009F910E94131FA0E0B0E080E09FE30E94D3
:10336200631F0E941E21F901A0E0B8E20E943720EB
:10337200AE0FBF1F0E94F5207F936F93FF93EF93D1
:10338200F9013197A0E0B8E20E943720AE0FBF1FCB
:103392000E94F520AF91BF918F919F910E94131FC0
:1033A200A0E0B0E080E09FE30E94631FDF01CB0159
:1033B20019DEAF91BF91EC93EFEFF0E0E21BF30B5C
:1033C200E050F84CFF93EF93F901A0E0B8E20E94BD
:1033D2003720AE0FBF1F0E94F5200E941E21F90167
:1033E200A0E0B8E20E943720AE0FBF1F0E94F52076
:1033F2007F936F93FF93EF93D9010E944520AC5FB7
:10340200B74D0E94F520AF91BF918F919F910E947D
:10341200131FA0E0B0E080E09FE30E94631F0E94C0
:103422001E21F901A0E0B8E20E943720AE0FBF1FB3
:103432000E94F5207F936F93FF93EF93F9013197E9
:10344200A0E0B8E20E943720AE0FBF1F0E94F52015
:10345200AF91BF918F919F910E94131FA0E0B0E0A6
:1034620080E09FE30E94631FDF01CB0133DEAF9157
:10347200BF91EC932F5F3F4F3BCFE091FC2BF0913C
:10348200FD2B6091FE2B7091FF2B0E941E21A091BB
:10349200FC2BB091FD2B8091FE2B9091FF2BE091A4
:1034A200F82BF091F92B6091FA2B7091FB2B0E9473
:1034B200131FA0E0B0E080E09FE30E94631FDF01E2
:1034C200CB011FDDE0930039E091FC2BF091FD2B45
:1034D2006091FE2B7091FF2B0E941E21A091FC2B6C
:1034E200B091FD2B8091FE2B9091FF2BE091F82B58
:1034F200F091F92B6091FA2B7091FB2B0E94131F14
:10350200A0E0B0E080E09FE30E94631FDF01CB01F7
:1035120030DDE09300382224FECFFFCFAA93E09162
:103522008406EF70AE2FE881E07FEA2BE0938406F9
:1035320085E18A95F1F7E4E0E093850685E38A95D3
:10354200F1F7E093860685E38A95F1F7BFC0AA9367
:10355200A881E4DFE881E295E883A881DFDF80E9E2
:1035620091E00197F1F7B2C0AA93E881F0E0E05E42
:10357200F54CE081A981AE0FEADFE981E093243ABC
:10358200E881E093253A22960895A2E0E0DFA3E0E5
:10359200B0E00E94461EACE0DADFA1E0D8DFA3E093
:1035A200B0E00E94461EE0E0E093253AE093243A20
:1035B2000895AA93A881AA3031F0E091263AA09109
:1035C200243AAE1760F0E0E0EA93A091253AAF5FAB
:1035D200A093253AC9DFA881AA3009F477C0E09107
:1035E200243AEF5FE093243AE1E0E0938506A88174
:1035F200AEDFE1E0E093860669C0BA93AA931A931C
:10360200A981BA81ED91A983BA831E2FE03019F006
:10361200A12FCFDFF5CF10C0BA93AA931A93E981F5
:10362200FA813196E983FA833197E4911E2FE030D3
:1036320019F0A12FBEDFF3CF188123960895AA9324
:10364200E0918006E06FE0938006E4E0E09381067B
:10365200E1E0E0938106E2E0E0938106E4E0E093BA
:103662008606E1E0E0938606E2E0E0938606E881E2
:10367200E093263AE058E093223AE881E054E0935E
:10368200233AA4E1B0E00E94461EA0E347DF80E2B5
:1036920093E00197F1F7A0E341DF80E293E0019725
:1036A200F1F7A0E33BDF80E293E00197F1F7A0E2BC
:1036B20035DF80E293E00197F1F7A8E248DFA4E06A
:1036C20046DFA5E844DFA6E042DF5FDF21960895EA
:1036D2000E9423217B816A81F981E88177FB770F40
:1036E20067FD7160972F9E5781F078F0983190F4C2
:1036F200AA27BB27882708948795B795A7959A95F7
:10370200D1F7EA23FB23682305C0E8947727EE2745
:10371200FF2766276F77769508F4606877F9A99195
:10372200B99189919991EA17FB076807790797FB85
:1037320008950E9423210E940F210E94691B0E946A
:10374200142119F40E940A21C9C0E6F70E940A2135
:10375200A0E0B0E080E89FE30E940C1FBFC00E947F
:10376200232124971A930A93AE81BF818885998574
:103772000E944B212CF0EFEFFFEF6FE77FEF95C038
:10378200EE81FF81688579850E941E21ADB7BEB7A3
:1037920011971F930F930E94501E0F911F91EE835A
:1037A200FF8368877987AE81BF8188859985E3EF3A
:1037B200F4E065E37FE30E94F61F60F4EE81FF818F
:1037C200688579850E94131FEE83FF836887798756
:1037D20001501040EE81FF8168857985A0E0B0E05C
:1037E20080E89FE30E940C1F7F936F93FF93EF93F8
:1037F200EE81FF8168857985A0E0B0E080E89FE3F3
:103802000E94131FAF91BF918F919F910E94B11F90
:10381200EE83FF8368877987AE81BF81888599852A
:103822000E94631FEA83FB836C837D83A6E2B2E47A
:1038320085E69FE30E94631FDF01CB01EEE4F1E125
:1038420064E570E40E9430210E940C1FAE81BF81AA
:10385200888599850E94631F7F936F93FF93EF93EF
:10386200EA81FB816C817D81ADE4B1E184ED9FE36E
:103872000E940C1FAF91BF918F919F910E94B11F27
:103882007F936F93FF93EF93F8010E944A200E9467
:10389200D91EA8E1B2E781E39FE30E94631FAF91C3
:1038A200BF918F919F910E94131F198108812A96BF
:1038B20008950E9423210E940F210E944B212CF087
:1038C200EFEFFFEF6FE77FEF09C00E940F2147DFA5
:1038D200A9EDBBE58EED9EE30E94631F2496089539
:1038E2000E94232128971A930A93AA85BB858C8567
:1038F2009D85E0E5FCEA6EEA72EC0E94F61F28F470
:10390200E0E0F0E060E070E0A7C0EA85FB856C854E
:103912007D850E94472129F4E0E0F0E060E87FE342
:103922009BC0AA85BB858C859D85E8E1F2E761EBAA
:1039320072E40E94F61F09F010F40C94A51CEFEF3C
:10394200FFEF6FE77FE788C0AA85BB858C859D85E1
:10395200EBE3FAEA68EB7FE30E94631FEA87FB87E7
:103962006C877D87AA85BB858C859D85E2DE0E945A
:10397200A21E8F01F801AA85BB858C859D850E94B8
:103982004A200E94D91E0E9430210E940C1FDF0192
:10399200CB01E0E0F0E060E07FE30E9430210E9492
:1039A2000C1FEE83FF8368877987AE81BF8188858C
:1039B20099850E94631FEA83FB836C837D83ADE656
:1039C200BCE48CE69DE30E94631FA6EAB3EE86EE9A
:1039D20090E40E94131FAE81BF81888599850E9461
:1039E200631FEE83FF8368877987EA81FB816C819D
:1039F2007D81A8E2BDE886EA91E40E94131FEA8372
:103A0200FB836C837D83EE81FF8168857985AA8142
:103A1200BB818C819D810E94131FA3EFB4E085EBD3
:103A22009FE30E94631F7F936F93FF93EF93AE8197
:103A3200BF8188859985EA81FB816C817D810E94A5
:103A42000C1FAF91BF918F919F910E94B11F0E9455
:103A52001E21D8010E94611E198108812E960895A7
:103A62000E9423212497E885F9856A857B850E9437
:103A7200472131F4E0E0F0E060E070E00C94441E95
:103A8200A885B9858A859B850E944B21ECF4EC813F
:103A9200FD816E817F810E94472131F4E0E0F0E0F8
:103AA20060E87FE30C94441EA885B9858A859B85CE
:103AB20056DEAC81BD818E819F810E94631FDF0132
:103AC200CB010EDF0C94441EEC81FD816E817F815F
:103AD200DE010E94A21E0E94FB200E940A210E9477
:103AE200D91EDF01CB01EC81FD816E817F810E94B5
:103AF200512131F0E0E0F0E060E070E00C94441E0F
:103B0200E885F9856A857B850E946D1EDF01CB0100
:103B120026DEAC81BD818E819F810E94631FDF0101
:103B2200CB01DEDEE887F9876A877B87E881E1706F
:103B320031F4E885F9856A857B850C94441EE88515
:103B4200F9856A857B850E946D1E0C94441EBA938A
:103B5200AA93A991B991E991F99130962AF4E09545
:103B6200F09531966DE26D93E89480E197E20DD085
:103B720088EE93E00AD084E6992707D08AE005D040
:103B82006E2F10D066276C9308956627E817F90701
:103B920020F06395E81BF90BC9F7662311F416F0C0
:103BA20008956894605D6D930895BA93AA932497DB
:103BB2001A930A93E0E0FAEC6AE97BE3EA83FB8377
:103BC2006C837D8300E0AB85AA2392F4E885F985B6
:103BD2006A857B850E942420E887F9876A877B872C
:103BE200AE81BF811196AE83BF831197EDE2EC9354
:103BF200EA81FB816C817D81A885B9858A859B8557
:103C02000E9494201E2F103071F4003061F4AA81BA
:103C1200BB818C819D81A130E0E0BE07E0E08E0790
:103C2200E0E09E0751F4AE81BF811196AE83BF835F
:103C32001197E12FE05DEC9301E0EA81FB816C8159
:103C42007D81A885B9858A859B850E94CC20E887DD
:103C5200F9876A877B87AA81BB818C819D81EAE093
:103C6200F0E060E070E00E949420EA83FB836C83C2
:103C72007D830E94472109F0BBCFAE81BF81E0E086
:103C8200EC93198108812C960895109639F080E4FE
:103C92009FE10197F1F7A8951197C9F70895E99166
:103CA200F9916991799177FB660F771F88277E5783
:103CB200880B7D938C937EE7769567956EF00895D9
:103CC200E991F9916991799177FB660F771F7A0FE4
:103CD200769567950EF0089530976040704009F030
:103CE20070580895552342F4503811F4E0FF04C08F
:103CF2003196691F791F6BF050E8572711F45F93D3
:103D0200CFC05F3F31F0660F000C57956795752F56
:103D120008955F9300200AF0CFC0C8C050E8192E62
:103D22001522880F991F9527550F879550E8072E62
:103D32000522660F771F7527550F679508956894BA
:103D420001C0E8945F93F2DF703818F07F3F08F407
:103D5200A7C056E1571BAAF4519558300EF45930BA
:103D620030F0EFEFFFEF6FEF7FE777F91AC07727B9
:103D72005523B9F0EE0FFF1F661F771F5A95D1F733
:103D820010C07727583028F0EF2FF62F672F5850A2
:103D9200F9CF552331F076956795F795E7955A95C2
:103DA200D1F700200AF44FD15F910895689401C0C1
:103DB200E894309760407040B1F0002426F07723F9
:103DC20012F4009440D1172E7EE1112032F07A9540
:103DD200EE0FFF1F661F111CF9CFEF2FF62F612D7B
:103DE2005F938ADF5F9108954F93AF01FD01DA017E
:103DF200AB01BC01CA01402D012C142E4F91089534
:103E0200EA0FFB1F681F0895E095F0956095EF5F3C
:103E1200FF4F6F4F08955F9381DF903871F150E843
:103E2200152604C05F937ADF903839F1703821F19A
:103E3200572F591B2BF112F4D7DFFACF583118F054
:103E4200AA27BB278827583028F0AB2FB82F8827FE
:103E52005850F9CF552329F08695B795A7955A95CD
:103E6200D9F7502D512572F0CBDF38F46795F795CD
:103E7200E795739513F420C0B7DF3EDF5F91089595
:103E8200D8F7FBCFEA1BFB0B680B51F010F4009440
:103E9200BBDF662392F3EE0FFF1F661F7A95CBF707
:103EA200EE27FF27662777275F910895EFEFFFEF51
:103EB2006FE77FEF5F910895EFEFFFEF6FE77FE727
:103EC2005F9108955F932ADF703851F3903841F380
:103ED20001240894791F23F41CF300203AF3ECCF59
:103EE2000F921F932F933F934F93112722279927C6
:103EF200689FA0018F9F302D410D591F6B9F300D80
:103F0200411D591F8E9F27D0BF9F25D06A9F23D066
:103F1200BE9F1DD0AF9F1BD0AE9F110D291F391F11
:103F2200491F591FE32FF42F652F522F4F913F91B5
:103F32002F911F910F9066232AF0550FEE1FFF1F3E
:103F4200661F02C073954BF2CDDE5F910895100D8E
:103F5200211D391F02C0200D311D491F591F08950F
:103F62005F93DCDE703821F411200AF49FCFA4CFD6
:103F7200903809F495CF01240894970B1BF4D4F3DD
:103F82000020F3CF792F1F932F933F934F93112448
:103F92001127222733274427552790E2AE17BF0760
:103FA2008607410730F0AE1BBF0B860B410B08940E
:103FB20001C08894551F221F331F111CAA1FBB1F4B
:103FC200881F441F9A9551F7F901612D4F913F9136
:103FD2002F911F91662332F0550FEE1FFF1F661FB0
:103FE2007A9543F27FDE5F91089599239AF07723C1
:103FF20042F0971748F029F4AE17BF07860720F062
:1040020031F0989488940895989408940895189497
:10401200889408957723C2F7971798F3A9F7EA17B8
:10402200FB07680788F399F3ECCFEA1BFB0B680BDD
:10403200790B0895AE1BBF0B860B970B0895F19574
:10404200E195F0400895F09560957095E195FF4FE8
:104052006F4F7F4F0895EE230E2EFD0121F0EE0FDC
:10406200FF1F0A94E1F70895EE0FFF1FEE0FFF1FE7
:10407200EE0FFF1F0895F595E795F595E795F595F0
:10408200E795F595E7950895AA0FBB1FAA0FBB1FE9
:1040920008956F2F660F660B762F0895FA9FF02D05
:1040A200EB9FF00DEA9FE02DF10D08957A9F702DA0
:1040B2006B9F700DF89F700DE99F700D6A9F602DC8
:1040C200710DFB9F600D711DE89F600D711D8827AA
:1040D200FA9FF02D610D781FEB9FF00D611D781F87
:1040E200EA9FE02DF10D681F781F089558D0D6DFA2
:1040F2000EF4A5DF08950024112490E1AA0FBB1F3E
:10410200001C111C0E1A1F0A18F40E0E1F1E01C0ED
:10411200A1609A9599F7FD01D001089540D0EBDF97
:104122000EF48DDF08953F934F935F930024112483
:104132004427552730E2AA0FBB1F881F991F001C76
:10414200111C441F551F0E1A1F0A460B570B28F449
:104152000E0E1F1E461F571F01C0A1603A9559F748
:10416200FD01BC01D001CA015F914F913F910895B9
:1041720024D0D9DF0EF467DF0895E894B7FF04C0B6
:10418200A095B09511966894F7FD59DFB4DFFD0153
:104192000EF455DF0895C7DFFD01BC010895E894D0
:1041A200F7FF02C04CDF6894B7FF06C0A095B09538
:1041B200119600F8039400FA0895E89477FF02C07C
:1041C20042DF689497FF0BC00024A095B0958095BC
:1041D20090951196801D901D00F8039400FA0895A1
:1041E200ED91FC9111970895ED91FD916D917C9166
:1041F20013970895ED93FD936D937C930895059025
:10420200F491E02D08950590159065917491F00157
:104212000895E881F9816A817B810895A881B98135
:104222008A819B810895E883F9836A837B83089559
:10423200A083B1838283938308957A936A93FA93D6
:10424200EA9308959A938A93BA93AA930895BB27FF
:10425200EA0FFB1F02900A921197E1F70895182EB8
:10426200862F612D192E972F712D1B2EBF2FF12D09
:104272001A2EAE2FE12D08959927EF93FF936191A6
:104282006D930197E1F7FF91EF91089530976040A8
:104292007040089500240A160B06080609060895C0
:1042A200EA17FB07680779070895AE17BF07860765
:1042B200970708955A934A933A932A931A930A9323
:1042C20008955D814C813B812A811981088108957D
:00000001FF
