:0A0000000C94D3090C9400000C943A
:10000A0000000C9400000C9400000C9400000C9466
:10001A00340E0C94200E0C9400000C9400000C94E6
:10002A0000000C9400000C9400000C9400000C9446
:10003A0000000C9400000C9400000C9400000C9436
:10004A0000000C9400000C9400000C9400000C9426
:10005A0000000C9400000C9400000C9400000C9416
:10006A0000000C9400000C9400000C9400000C9406
:10007A0000000C9400000C9400000C9400000C94F6
:10008A0000000C9400000C9400000C9400000C94E6
:10009A0000000C9400000C9400000C9400000C94D6
:1000AA0000000C9400000C9400000C9400000C94C6
:1000BA0000000C94160F0C9400000C9400000C9491
:1000CA0000000C9400000C9400000C943A0F0C945D
:1000DA0000000C9400000C9400000C9400000C9496
:1000EA0000000C9400000C9400000C9400000C9486
:1000FA0000000C9400000C9474140C9400000C94EE
:10010A0000000C9400000C9400000C9400000C9465
:10011A0000000C9400000C9400000C9400000C9455
:10012A0000000C9400000C9400000C94FE0D0C943A
:10013A0000000C9400000C9400000C9400000C9435
:10014A0000000C9400000C9400000C9400000C9425
:10015A0000000C9400000C9400000C9400000C9415
:10016A0000000C9400000C9400000C9400000C9405
:10017A0000000C9400000C9400000C9400000C94F5
:10018A0000000C9400000C9400000C9400000C94E5
:10019A0000000C9400000C9400000C9400000C94D5
:1001AA0000000C9400000C9494140C9400000C941D
:1001BA0000000C9400000C9400000C9400000C94B5
:1001CA0000000C9400000C9400000C9400000C94A5
:1001DA0000000C9400000C9400000C9400000C9495
:1001EA0000000C9400000C9400000102030A0405AC
:1001FA00060B0708090C0D000E0F00000000808492
:10020A001E0075562000076A1100000000D0070082
:10021A00006D562000047D1187FFFFFFFAFFFFFFE4
:10022A0064422000049011A5FFFFFF18000000643B
:10023A00426D0004A711F90F0909090909090909F9
:10024A000909090109090909951009090909090989
:10025A0009040902090009090509BB110909090963
:10026A00090909010903090009090609BB12090953
:10027A000909090909020904090009090709C61334
:10028A0009090909090909030901090009090809EC
:10029A00FF100505050505050505050505090901FB
:1002AA000109481206060606060606060606060995
:1002BA00090202098D130707070707070707070738
:1002CA0007090703030700140909090909090908A5
:1002DA0009080909090404090000803F0000000018
:1002EA0011FB7F3F900E493C43EC7F3FB00AC93C6B
:1002FA0097D37F3F2CC3163D0FB17F3F30FB483D5C
:10030A00AB847F3F742B7B3D6D4E7F3F05A9963DA5
:10031A00580E7F3F80B6AF3D6DC47E3F36BDC83DA7
:10032A00B0707E3F2EBCE13D24137E3F73B2FA3D8E
:10033A00CCAB7D3F86CF093EAC3A7D3F8340163E2B
:10034A00C9BF7C3FB6AB223E283B7C3FA2102F3E62
:10035A00CDAC7B3FCF6E3B3EBE147B3FC2C5473E12
:10036A0002737A3F0115543E9DC7793F135C603E84
:10037A009812793F7F9A6C3EF853783FCCCF783EFB
:10038A00C58B773FC07D823E07BA763F938E883E03
:10039A00C6DE753F229A8E3E0BFA743F31A0943E18
:1003AA00DD0B743F86A09A3E4714733FE59AA03E40
:1003BA005213723F128FA63E0809713FD47CAC3E9D
:1003CA0073F56F3FEF63B23E9ED86E3F2A44B83E44
:1003DA0093B26D3F4A1DBE3E5E836C3F15EFC33E2E
:1003EA000C4B6B3F53B9C93EA7096A3FCA7BCF3E44
:1003FA003CBF683F4136D53ED86B673F80E8DA3E5E
:10040A00880F663F4F92E03E59AA643F7533E63E35
:10041A005A3C633FBBCBEB3E98C5613FEA5AF13E7B
:10042A002146603FCBE0F63E05BE5E3F275DFC3EBF
:10043A00532D5D3FE4E7003F1A945B3F3D9C033F29
:10044A006AF2593F824B063F5348583F9BF5083F93
:10045A00E595563F6B9A0B3F31DB543FDA390E3F35
:10046A004918533FCDD3103F3D4D513F2A68133FA2
:10047A001F7A4F3FD9F6153F029F4D3FC07F183F65
:10048A00F8BB4B3FC6021B3F12D1493FD17F1D3FEC
:10049A0065DE473FCBF61F3F03E4453F9967223F9E
:1004AA0000E2433F25D2243F70D8413F5636273FCA
:1004BA0067C73F3F1594293FF9AE3D3F4AEB2B3FB3
:1004CA003B8F3B3FDE3B2E3F4268393FBB85303F87
:1004DA00233A373FC9C8323FF304353FF304353F67
:1004EA00C9C8323F233A373FBB85303F4268393F5C
:1004FA00DE3B2E3F3B8F3B3F4AEB2B3FF9AE3D3F66
:10050A001594293F67C73F3F5636273F70D8413F6A
:10051A0025D2243F00E2433F9967223F03E4453F47
:10052A00CBF61F3F65DE473FD17F1D3F12D1493FC2
:10053A00C6021B3FF8BB4B3FC07F183F029F4D3F8F
:10054A00D9F6153F1F7A4F3F2A68133F3D4D513F59
:10055A00CDD3103F4918533FDA390E3F31DB543FB0
:10056A006B9A0B3FE595563F9BF5083F5348583F1A
:10057A00824B063F6AF2593F3D9C033F1A945B3F08
:10058A00E4E7003F532D5D3F275DFC3E05BE5E3F1D
:10059A00CBE0F63E2146603FEA5AF13E98C5613FFC
:1005AA00BBCBEB3E5A3C633F7533E63E59AA643FE8
:1005BA004F92E03E880F663F80E8DA3ED86B673F8D
:1005CA004136D53E3CBF683FCA7BCF3EA7096A3F4A
:1005DA0053B9C93E0C4B6B3F15EFC33E5E836C3F6C
:1005EA004A1DBE3E93B26D3F2A44B83E9ED86E3F26
:1005FA00EF63B23E73F56F3FD47CAC3E0809713F9E
:10060A00128FA63E5213723FE59AA03E4714733FDB
:10061A0086A09A3EDD0B743F31A0943E0BFA743FDC
:10062A00229A8E3EC6DE753F938E883E07BA763F83
:10063A00C07D823EC58B773FCCCF783EF853783F5A
:10064A007F9A6C3E9812793F135C603E9DC7793F52
:10065A000115543E02737A3FC2C5473EBE147B3F22
:10066A00CF6E3B3ECDAC7B3FA2102F3E283B7C3F5A
:10067A00B6AB223EC9BF7C3F8340163EAC3A7D3FB3
:10068A0086CF093ECCAB7D3F73B2FA3D24137E3F41
:10069A002EBCE13DB0707E3F36BDC83D6DC47E3F85
:1006AA0080B6AF3D580E7F3F05A9963D6D4E7F3F00
:1006BA00742B7B3DAB847F3F30FB483D0FB17F3FBE
:1006CA002CC3163D97D37F3FB00AC93C43EC7F3F0A
:1006DA00900E493C11FB7F3F000000000000803F64
:1006EA00900E49BC11FB7F3FB00AC9BC43EC7F3F67
:1006FA002CC316BD97D37F3F30FB48BD0FB17F3F58
:10070A00742B7BBDAB847F3F05A996BD6D4E7F3FA1
:10071A0080B6AFBD580E7F3F36BDC8BD6DC47E3FA3
:10072A002EBCE1BDB0707E3F73B2FABD24137E3F8A
:10073A0086CF09BECCAB7D3F834016BEAC3A7D3F27
:10074A00B6AB22BEC9BF7C3FA2102FBE283B7C3F5E
:10075A00CF6E3BBECDAC7B3FC2C547BEBE147B3F0E
:10076A00011554BE02737A3F135C60BE9DC7793F80
:10077A007F9A6CBE9812793FCCCF78BEF853783FF7
:10078A00C07D82BEC58B773F938E88BE07BA763FFF
:10079A00229A8EBEC6DE753F31A094BE0BFA743F14
:1007AA0086A09ABEDD0B743FE59AA0BE4714733F3C
:1007BA00128FA6BE5213723FD47CACBE0809713F99
:1007CA00EF63B2BE73F56F3F2A44B8BE9ED86E3F40
:1007DA004A1DBEBE93B26D3F15EFC3BE5E836C3F2A
:1007EA0053B9C9BE0C4B6B3FCA7BCFBEA7096A3F40
:1007FA004136D5BE3CBF683F80E8DABED86B673F5A
:10080A004F92E0BE880F663F7533E6BE59AA643F31
:10081A00BBCBEBBE5A3C633FEA5AF1BE98C5613F77
:10082A00CBE0F6BE2146603F275DFCBE05BE5E3FBB
:10083A00E4E700BF532D5D3F3D9C03BF1A945B3F25
:10084A00824B06BF6AF2593F9BF508BF5348583F8F
:10085A006B9A0BBFE595563FDA390EBF31DB543F31
:10086A00CDD310BF4918533F2A6813BF3D4D513F9E
:10087A00D9F615BF1F7A4F3FC07F18BF029F4D3F61
:10088A00C6021BBFF8BB4B3FD17F1DBF12D1493FE8
:10089A00CBF61FBF65DE473F996722BF03E4453F9A
:1008AA0025D224BF00E2433F563627BF70D8413FC6
:1008BA00159429BF67C73F3F4AEB2BBFF9AE3D3FAF
:1008CA00DE3B2EBF3B8F3B3FBB8530BF4268393F83
:1008DA00C9C832BF233A373FF30435BFF304353F63
:1008EA00233A37BFC9C8323F426839BFBB85303F58
:1008FA003B8F3BBFDE3B2E3FF9AE3DBF4AEB2B3F62
:10090A0067C73FBF1594293F70D841BF5636273F66
:10091A0000E243BF25D2243F03E445BF9967223F43
:10092A0065DE47BFCBF61F3F12D149BFD17F1D3FBE
:10093A00F8BB4BBFC6021B3F029F4DBFC07F183F8B
:10094A001F7A4FBFD9F6153F3D4D51BF2A68133F55
:10095A00491853BFCDD3103F31DB54BFDA390E3FAC
:10096A00E59556BF6B9A0B3F534858BF9BF5083F16
:10097A006AF259BF824B063F1A945BBF3D9C033F04
:10098A00532D5DBFE4E7003F05BE5EBF275DFC3E19
:10099A00214660BFCBE0F63E98C561BFEA5AF13EF8
:1009AA005A3C63BFBBCBEB3E59AA64BF7533E63EE4
:1009BA00880F66BF4F92E03ED86B67BF80E8DA3E89
:1009CA003CBF68BF4136D53EA7096ABFCA7BCF3E46
:1009DA000C4B6BBF53B9C93E5E836CBF15EFC33E68
:1009EA0093B26DBF4A1DBE3E9ED86EBF2A44B83E22
:1009FA0073F56FBFEF63B23E080971BFD47CAC3E9A
:100A0A00521372BF128FA63E471473BFE59AA03ED7
:100A1A00DD0B74BF86A09A3E0BFA74BF31A0943ED8
:100A2A00C6DE75BF229A8E3E07BA76BF938E883E7F
:100A3A00C58B77BFC07D823EF85378BFCCCF783E56
:100A4A00981279BF7F9A6C3E9DC779BF135C603E4E
:100A5A0002737ABF0115543EBE147BBFC2C5473E1E
:100A6A00CDAC7BBFCF6E3B3E283B7CBFA2102F3E56
:100A7A00C9BF7CBFB6AB223EAC3A7DBF8340163EAF
:100A8A00CCAB7DBF86CF093E24137EBF73B2FA3D3D
:100A9A00B0707EBF2EBCE13D6DC47EBF36BDC83D81
:100AAA00580E7FBF80B6AF3D6D4E7FBF05A9963DFC
:100ABA00AB847FBF742B7B3D0FB17FBF30FB483DBA
:100ACA0097D37FBF2CC3163D43EC7FBFB00AC93C06
:100ADA0011FB7FBF900E493C000080BF0000000060
:100AEA0011FB7FBF900E49BC43EC7FBFB00AC9BC63
:100AFA0097D37FBF2CC316BD0FB17FBF30FB48BD54
:100B0A00AB847FBF742B7BBD6D4E7FBF05A996BD9D
:100B1A00580E7FBF80B6AFBD6DC47EBF36BDC8BD9F
:100B2A00B0707EBF2EBCE1BD24137EBF73B2FABD86
:100B3A00CCAB7DBF86CF09BEAC3A7DBF834016BE23
:100B4A00C9BF7CBFB6AB22BE283B7CBFA2102FBE5A
:100B5A00CDAC7BBFCF6E3BBEBE147BBFC2C547BE0A
:100B6A0002737ABF011554BE9DC779BF135C60BE7C
:100B7A00981279BF7F9A6CBEF85378BFCCCF78BEF3
:100B8A00C58B77BFC07D82BE07BA76BF938E88BEFB
:100B9A00C6DE75BF229A8EBE0BFA74BF31A094BE10
:100BAA00DD0B74BF86A09ABE471473BFE59AA0BE38
:100BBA00521372BF128FA6BE080971BFD47CACBE95
:100BCA0073F56FBFEF63B2BE9ED86EBF2A44B8BE3C
:100BDA0093B26DBF4A1DBEBE5E836CBF15EFC3BE26
:100BEA000C4B6BBF53B9C9BEA7096ABFCA7BCFBE3C
:100BFA003CBF68BF4136D5BED86B67BF80E8DABE56
:100C0A00880F66BF4F92E0BE59AA64BF7533E6BE2D
:100C1A005A3C63BFBBCBEBBE98C561BFEA5AF1BE73
:100C2A00214660BFCBE0F6BE05BE5EBF275DFCBEB7
:100C3A00532D5DBFE4E700BF1A945BBF3D9C03BF21
:100C4A006AF259BF824B06BF534858BF9BF508BF8B
:100C5A00E59556BF6B9A0BBF31DB54BFDA390EBF2D
:100C6A00491853BFCDD310BF3D4D51BF2A6813BF9A
:100C7A001F7A4FBFD9F615BF029F4DBFC07F18BF5D
:100C8A00F8BB4BBFC6021BBF12D149BFD17F1DBFE4
:100C9A0065DE47BFCBF61FBF03E445BF996722BF96
:100CAA0000E243BF25D224BF70D841BF563627BFC2
:100CBA0067C73FBF159429BFF9AE3DBF4AEB2BBFAB
:100CCA003B8F3BBFDE3B2EBF426839BFBB8530BF7F
:100CDA00233A37BFC9C832BFF30435BFF30435BF5F
:100CEA00C9C832BF233A37BFBB8530BF426839BF54
:100CFA00DE3B2EBF3B8F3BBF4AEB2BBFF9AE3DBF5E
:100D0A00159429BF67C73FBF563627BF70D841BF62
:100D1A0025D224BF00E243BF996722BF03E445BF3F
:100D2A00CBF61FBF65DE47BFD17F1DBF12D149BFBA
:100D3A00C6021BBFF8BB4BBFC07F18BF029F4DBF87
:100D4A00D9F615BF1F7A4FBF2A6813BF3D4D51BF51
:100D5A00CDD310BF491853BFDA390EBF31DB54BFA8
:100D6A006B9A0BBFE59556BF9BF508BF534858BF12
:100D7A00824B06BF6AF259BF3D9C03BF1A945BBF00
:100D8A00E4E700BF532D5DBF275DFCBE05BE5EBF15
:100D9A00CBE0F6BE214660BFEA5AF1BE98C561BFF4
:100DAA00BBCBEBBE5A3C63BF7533E6BE59AA64BFE0
:100DBA004F92E0BE880F66BF80E8DABED86B67BF85
:100DCA004136D5BE3CBF68BFCA7BCFBEA7096ABF42
:100DDA0053B9C9BE0C4B6BBF15EFC3BE5E836CBF64
:100DEA004A1DBEBE93B26DBF2A44B8BE9ED86EBF1E
:100DFA00EF63B2BE73F56FBFD47CACBE080971BF96
:100E0A00128FA6BE521372BFE59AA0BE471473BFD3
:100E1A0086A09ABEDD0B74BF31A094BE0BFA74BFD4
:100E2A00229A8EBEC6DE75BF938E88BE07BA76BF7B
:100E3A00C07D82BEC58B77BFCCCF78BEF85378BF52
:100E4A007F9A6CBE981279BF135C60BE9DC779BF4A
:100E5A00011554BE02737ABFC2C547BEBE147BBF1A
:100E6A00CF6E3BBECDAC7BBFA2102FBE283B7CBF52
:100E7A00B6AB22BEC9BF7CBF834016BEAC3A7DBFAB
:100E8A0086CF09BECCAB7DBF73B2FABD24137EBF39
:100E9A002EBCE1BDB0707EBF36BDC8BD6DC47EBF7D
:100EAA0080B6AFBD580E7FBF05A996BD6D4E7FBFF8
:100EBA00742B7BBDAB847FBF30FB48BD0FB17FBFB6
:100ECA002CC316BD97D37FBFB00AC9BC43EC7FBF02
:100EDA00900E49BC11FB7FBF00000000000080BFDC
:100EEA00900E493C11FB7FBFB00AC93C43EC7FBF5F
:100EFA002CC3163D97D37FBF30FB483D0FB17FBF50
:100F0A00742B7B3DAB847FBF05A9963D6D4E7FBF99
:100F1A0080B6AF3D580E7FBF36BDC83D6DC47EBF9B
:100F2A002EBCE13DB0707EBF73B2FA3D24137EBF82
:100F3A0086CF093ECCAB7DBF8340163EAC3A7DBF1F
:100F4A00B6AB223EC9BF7CBFA2102F3E283B7CBF56
:100F5A00CF6E3B3ECDAC7BBFC2C5473EBE147BBF06
:100F6A000115543E02737ABF135C603E9DC779BF78
:100F7A007F9A6C3E981279BFCCCF783EF85378BFEF
:100F8A00C07D823EC58B77BF938E883E07BA76BFF7
:100F9A00229A8E3EC6DE75BF31A0943E0BFA74BF0C
:100FAA0086A09A3EDD0B74BFE59AA03E471473BF34
:100FBA00128FA63E521372BFD47CAC3E080971BF91
:100FCA00EF63B23E73F56FBF2A44B83E9ED86EBF38
:100FDA004A1DBE3E93B26DBF15EFC33E5E836CBF22
:100FEA0053B9C93E0C4B6BBFCA7BCF3EA7096ABF38
:100FFA004136D53E3CBF68BF80E8DA3ED86B67BF52
:10100A004F92E03E880F66BF7533E63E59AA64BF29
:10101A00BBCBEB3E5A3C63BFEA5AF13E98C561BF6F
:10102A00CBE0F63E214660BF275DFC3E05BE5EBFB3
:10103A00E4E7003F532D5DBF3D9C033F1A945BBF1D
:10104A00824B063F6AF259BF9BF5083F534858BF87
:10105A006B9A0B3FE59556BFDA390E3F31DB54BF29
:10106A00CDD3103F491853BF2A68133F3D4D51BF96
:10107A00D9F6153F1F7A4FBFC07F183F029F4DBF59
:10108A00C6021B3FF8BB4BBFD17F1D3F12D149BFE0
:10109A00CBF61F3F65DE47BF9967223F03E445BF92
:1010AA0025D2243F00E243BF5636273F70D841BFBE
:1010BA001594293F67C73FBF4AEB2B3FF9AE3DBFA7
:1010CA00DE3B2E3F3B8F3BBFBB85303F426839BF7B
:1010DA00C9C8323F233A37BFF304353FF30435BF5B
:1010EA00233A373FC9C832BF4268393FBB8530BF50
:1010FA003B8F3B3FDE3B2EBFF9AE3D3F4AEB2BBF5A
:10110A0067C73F3F159429BF70D8413F563627BF5E
:10111A0000E2433F25D224BF03E4453F996722BF3B
:10112A0065DE473FCBF61FBF12D1493FD17F1DBFB6
:10113A00F8BB4B3FC6021BBF029F4D3FC07F18BF83
:10114A001F7A4F3FD9F615BF3D4D513F2A6813BF4D
:10115A004918533FCDD310BF31DB543FDA390EBFA4
:10116A00E595563F6B9A0BBF5348583F9BF508BF0E
:10117A006AF2593F824B06BF1A945B3F3D9C03BFFC
:10118A00532D5D3FE4E700BF05BE5E3F275DFCBE11
:10119A002146603FCBE0F6BE98C5613FEA5AF1BEF0
:1011AA005A3C633FBBCBEBBE59AA643F7533E6BEDC
:1011BA00880F663F4F92E0BED86B673F80E8DABE81
:1011CA003CBF683F4136D5BEA7096A3FCA7BCFBE3E
:1011DA000C4B6B3F53B9C9BE5E836C3F15EFC3BE60
:1011EA0093B26D3F4A1DBEBE9ED86E3F2A44B8BE1A
:1011FA0073F56F3FEF63B2BE0809713FD47CACBE92
:10120A005213723F128FA6BE4714733FE59AA0BECF
:10121A00DD0B743F86A09ABE0BFA743F31A094BED0
:10122A00C6DE753F229A8EBE07BA763F938E88BE77
:10123A00C58B773FC07D82BEF853783FCCCF78BE4E
:10124A009812793F7F9A6CBE9DC7793F135C60BE46
:10125A0002737A3F011554BEBE147B3FC2C547BE16
:10126A00CDAC7B3FCF6E3BBE283B7C3FA2102FBE4E
:10127A00C9BF7C3FB6AB22BEAC3A7D3F834016BEA7
:10128A00CCAB7D3F86CF09BE24137E3F73B2FABD35
:10129A00B0707E3F2EBCE1BD6DC47E3F36BDC8BD79
:1012AA00580E7F3F80B6AFBD6D4E7F3F05A996BDF4
:1012BA00AB847F3F742B7BBD0FB17F3F30FB48BDB2
:1012CA0097D37F3F2CC316BD43EC7F3FB00AC9BCFE
:1012DA0011FB7F3F900E49BC1027E80364000A0007
:1012EA000100001000011000010000007F4385B1D9
:1012FA0005B990D0030063616C696272617465001C
:10130A0053616D706C696E672046726571203D008D
:10131A004B487A005365742053616D70204672659C
:10132A00713A005065724469762056616C0020203B
:10133A002000536574205065724469762056616CAA
:10134A003A004D696E2056616C00536574204D69F0
:10135A006E2056616C3A004761696E203D20005349
:10136A006574204761696E3A20004D7A5A0080C040
:10137A0001002D4E414E00494E46000004000D3A30
:10138A00F4120400113AF8120300193AFC1202008E
:10139A00213A78130100283A7A130000F894EE27CC
:1013AA00E8BFE9BFEABFF091CC01F860F093CC0145
:1013BA00F8EDF4BFE093A200E0934004A09180000E
:1013CA00AD7FA160F4BFA093800080E090E2A0E02E
:1013DA00B0E2ED930197E9F7E6E8F3E1859195919B
:1013EA00009761F0A591B59105901590BF01F001A4
:1013FA0005900D920197E1F7FB01F0CF8BBFE0E07A
:10140A00E0B9E1B9E2B9E3B9E4B9E5B9E6B9E7B9EE
:10141A00E8B9E9B9EAB9EBB9ECB9EDB9EEB9EFB99E
:10142A002E2E3E2E4E2E5E2E6E2E7E2E8E2E9E2E12
:10143A00AE2EE1E0BE2EE0E0CE2EDE2EEFEFEDBFC7
:10144A00EFE3EEBFC0E0D8E20C9450191A930A9366
:10145A000FB7F894EBECE0935200E0915000E8608B
:10146A00E0935000E0915100E870E1F3E0915500FB
:10147A00E072E26C1E2FE8EDE4BF10935500E09194
:10148A005000E061E0935000E0914100E0781E2FA7
:10149A00E8EDE4BF10934100E0915100E071E1F3FF
:1014AA00E0914000E87FE4601E2FE8EDE4BF10936E
:1014BA004000E0915000E87FE0935000E091B400D2
:1014CA00EC7FE093B4000FBF53C4E0E0E09304065E
:1014DA00E0930006E0931006E0931106E0931206EB
:1014EA00E0931306E0931406E0931506E0931606BC
:1014FA00E0931706E0910906E07FE0930906E0E031
:10150A00E0930A06E0930B06E0932406E093200694
:10151A00E0933006E0933106E0933206E093330617
:10152A00E0933406E0933506E0933606E0933706F7
:10153A00E0912906E07FE0932906E0E0E0932A069D
:10154A00E0932B06E0934406E0934006E0935006AE
:10155A00E0935106E0935206E0935306E093540653
:10156A00E0935506E0935606E0935706E091490644
:10157A00E07FE0934906E0E0E0934A06E0934B06F9
:10158A00EFE0E0936406E0936006E0E1E093700622
:10159A00E0937106E0937206E0937306E1E1E0934B
:1015AA007406E0937506E0937606E0937706E09179
:1015BA006906E07FE360E0936906E0EFE0936A067C
:1015CA00E0E0E0936B06E0938406E0938006E09304
:1015DA009006E0939106E0939206E0939306E093D7
:1015EA009406E0939506E0939606E0939706E091B9
:1015FA008906E07FE0938906E0E0E0938A06E093BB
:10160A008B06E8E0E093A406E093A006E0E0E0930E
:10161A00B006E093B106E093B206E093B306E09316
:10162A00B406E093B506E093B606E093B706E091F8
:10163A00A906E07FE093A906E0E0E093AA06E0931A
:10164A00AB06E093E406EFEFE093E006E0E0E09318
:10165A00F006E093F106E093F206E093F306E093D6
:10166A00F406E093F506E093F606E093F706E091B8
:10167A00E906E07FE093E906E0E0E093EA06E0931A
:10168A00EB06E0930407EFEFE0930007E0E0E09356
:10169A001007E0931107E0931207E0931307E09312
:1016AA001407E0931507E0931607E0931707E091F4
:1016BA000907E07FE0930907E0E0E0930A07E09377
:1016CA000B07E0932407EFEFE0932007E0E0E093B5
:1016DA003007E0933107E0933207E0933307E09352
:1016EA003407E0933507E0933607E0933707E09134
:1016FA002907E07FE0932907E0E0E0932A07E093D7
:10170A002B07E093C407E093C007E093D007E09368
:10171A00D107E093D207E093D307E091C907E07FAE
:10172A00E093C907E0E0E093CA07E093CB07E093B0
:10173A00E407E093E007E093F007E093F107E09114
:10174A00E907E07FE093E907E0E0E093EA07E09346
:10175A00EB070895E0E1E093B200E2E3E093B3001F
:10176A000895BA93AA93A881B981EC91E07FEC938A
:10177A001996ECE0EC931DC1BA93AA93A881B9819A
:10178A00EC91E07FEC931996ECE0EC9312C11A937A
:10179A001FB7F894A0E0B9E0E4DFE0910009E07F28
:1017AA00E760E0930009E0910109E870E09301091C
:1017BA00E0910309E071E0930309E0910609E07FF3
:1017CA00E260E0930609E0910709E070E0930709F7
:1017DA00E0919009EE7FE0939009E0910C09E09383
:1017EA000C09E0E0F0E0E0932009F0932109E1E13F
:1017FA00FAE7E0932609F0932709E0E0F0E0E093A6
:10180A002809F0932909E0932A09F0932B09E09318
:10181A002C09F0932D09E0932E09F0932F09E1C3C7
:10182A00E0E0E0930009E0E0F0E0E0932009F093C3
:10183A002109E1E0E0930C090895E7E0E09300094B
:10184A0008951A930A931FB7F894A0E0B8E089DFC5
:10185A00E0910008E07FE160E0930008E091010870
:10186A00E870E0930108E0910308E071E09303084F
:10187A00E0910608E07FE0930608E0910708E0702F
:10188A00E0930708E0919008EE7FE0939008E091DA
:10189A009900EE7F0E2FE8EDE4BF00939900E091E6
:1018AA008008E07CE0938008E0918308E87EE0937A
:1018BA008308E0E0E0938208A4E8B8E00A2EAC913D
:1018CA00E0918408E470EA2BA02DEC93E0910C08D7
:1018DA00E0930C08E0E0F0E0E0932008F0932108A0
:1018EA00EFE0F0E0E0932608F0932708E0E0F0E06C
:1018FA00E0932808F0932908E0932A08F0932B082C
:10190A00E0932C08F0932D08E0932E08F0932F080B
:10191A002EC230900008E0E0E0930008E0E0F0E03A
:10192A00E0932008F0932108089530920008089562
:10193A00E0E0E0938001E0938101E0938201E0938B
:10194A008301E0938401E0938501E0938601E0EC52
:10195A00E0938701E0918801E078E0938801E0E074
:10196A00E0938901E0918A01E078E0938A01E0E05E
:10197A00E0938B01E0918C01E078E0938C01E0E048
:10198A00E0938D01E0938E01E0938F01E091B40022
:10199A00EF7CE093B4000895AA931A93E2E0E093EF
:1019AA00CA01E981F0E01491E0E0E093CA01E12F75
:1019BA00188122960895AA930E94D921A0E2ECDF09
:1019CA00E0930C02A1E2E8DFE0930D02E09101024C
:1019DA00E17EE061E0930102E0910402E87FE260C7
:1019EA00E0930402E0910202EE7CE062E0930202DC
:1019FA00E0912002E076AC81EA2BE260E0932002DB
:101A0A00E0912102E478E0932102E0910002E16092
:101A1A00E093000285E38A95F1F720E030E010E0D8
:101A2A001031A8F4E0912002E068E0932002E091EE
:101A3A002302E170E1F3E1E0E0932302E091240262
:101A4A00F0E0E7FDFFEF2E0F3F1F1F5FE9CFE091A8
:101A5A000002EE7FE0930002F9010E94B820F0E054
:101A6A00F0E0E7FDFFEF2F01E0E0E0931802E093DA
:101A7A001902E0912002E076AC81EA2BE360E09360
:101A8A002002E0912102E478E561E0932102E9E392
:101A9A00E0930302E0912202E07FE0932202E091C8
:101AAA002A02E07FE0932A02E0913202E07FE0938B
:101ABA003202E0913A02E07FE0933A02E0910002BA
:101ACA00E160E093000285E18A95F1F70E94E02146
:101ADA0025960895E0E0E0930001E0910001E078A6
:101AEA00E1F7E0E4E0930001E0910001E074E1F73E
:101AFA000895E0E0E0931001E0911001E078E1F749
:101B0A00E0E4E0931001E0911001E074E1F7089538
:101B1A00E0E0E0932001E0912001E078E1F7E0E4E1
:101B2A00E0932001E0912001E074E1F70895D2DF0B
:101B3A00E0DFEEDF0895E5E0E0931201E0E1E093F3
:101B4A001301E0E0F2E0E0931401F0931501E1E003
:101B5A00E0931601E5E2F2E060E070E0E09318013C
:101B6A00F093190160931A0170931B01E0E0FEE201
:101B7A0066277727E0931C01F0931D0160931E01ED
:101B8A0070931F01E3E0E0931101E0E8E093100194
:101B9A00E5E0E0932201E0E1E0932301E0E0F2E0F6
:101BAA00E0932401F0932501E1E0E0932601E4E2C9
:101BBA00F2E060E070E0E0932801F093290160937D
:101BCA002A0170932B01E0E0FCE266277727E09375
:101BDA002C01F0932D0160932E0170932F01E3E005
:101BEA00E0932101E0E8E0932001E3E8E0930001BB
:101BFA0008950A921A92FA926A937A938A939A9316
:101C0A00AA93BA93EA93FA93EFB7EA93222029F4B4
:101C1A0092DF8BDEE1E02E2E7724E991EFBFF99176
:101C2A00E991B991A9919991899179916991F990DB
:101C3A001990099018950A921A92FA926A937A93CD
:101C4A008A939A93AA93BA93EA93FA93EFB7EA9389
:101C5A00772021F05EDE6BDFE2E02E2E13C00A92BF
:101C6A001A92FA926A937A938A939A93AA93BA9354
:101C7A00EA93FA93EFB7EA93772021F04ADE57DF27
:101C8A00E2E02E2EE1E07E2EE991EFBFF991E99193
:101C9A00B991A9919991899179916991F99019903C
:101CAA00099018951A930A931FB7F894A0E0BAE01E
:101CBA0058DDE0E0E093000AE091010AE870E09361
:101CCA00010AE091030AE071E093030AE091060A2F
:101CDA00E07FE260E093060AE091070AE070E09391
:101CEA00070AE091900AEE7FE093900AE09199004A
:101CFA00EB7F0E2FE8EDE4BF00939900E091800A94
:101D0A00E07CE093800AE091830AE87EE093830A0C
:101D1A00E0E0E093820AA4E8BAE00A2EAC91E091EE
:101D2A00840AE470EA2BA02DEC93E0910C0AE0936C
:101D3A000C0AE0E0F0E0E093200AF093210AEFE9D0
:101D4A00F0E0E093260AF093270AE0E0F0E0E0935F
:101D5A00280AF093290AE0932A0AF0932B0AE093BF
:101D6A002C0AF0932D0AE0932E0AF0932F0A1FBF34
:101D7A00099119910895E0E0E093000A66249924F4
:101D8A008824BB24E0E0F0E0E093200AF093210AE3
:101D9A000895E1E0E093000A08951A931FB7F894B2
:101DAA00A0E4BAE0E9DCE0E0E093400AE091410A0D
:101DBA00E87CE093410AE091430AE071E093430A28
:101DCA00E091460AE07FE360E093460AE091470A21
:101DDA00E07FE093470AE091900AED7FE093900A52
:101DEA00E0914C0AE0934C0AE0E0F0E0E093600AEC
:101DFA00F093610AEFE7F0E0E093660AF093670A6E
:101E0A00E0E0F0E0E093680AF093690AE0936A0A76
:101E1A00F0936B0AE6C0E0E001C0E1E0E093400A1B
:101E2A000895EA93FA93EFB7EA93B092240780925F
:101E3A0004079092E406B394BA1490F06394962C33
:101E4A009294892CE0EF9E22EFE08E22E62DF0E0BC
:101E5A00E050F84CB080E62DF0E0E050F74CA0805E
:101E6A00E991EFBFF991E9911895AA93BA93EA9388
:101E7A00FA93EFB7EA93E091043AA091013AEA2B78
:101E8A00E0930407E091033AE093E406E091023A12
:101E9A00E0932407E091003AF0E0309789F4A091AA
:101EAA00033AB091043A1196A093033AB093043AD4
:101EBA00AF3FEFE0BE0719F4E1E0E093003A42C019
:101ECA00E130A0E0FA07A9F4E091013AF091023A70
:101EDA007096E093013AF093023AA091013AB091D8
:101EEA00023AA03FEFEFBE0719F4E2E0E093003AAE
:101EFA0029C0E230A0E0FA0779F4A091033AB09140
:101F0A00043A1197A093033AB093043A119719F43B
:101F1A00E3E0E093003A16C0E330A0E0FA0791F458
:101F2A00E091013AF091023A7097E093013AF09306
:101F3A00023AA091013AB091023A509719F4E0E0BE
:101F4A00E093003AE991EFBFF991E991B991A9912A
:101F5A0018951A931FB7F894A0E0BBE002DCE09151
:101F6A00000BE07FE560E093000BE091010BE87065
:101F7A00E093010BE091030BE071E093030BE09116
:101F8A00060BE07FE160E093060BE091070BE0703F
:101F9A00E093070BE091900BEE7FE093900BE091BA
:101FAA000C0BE0930C0BE0E0F0E0E093200BF093D5
:101FBA00210BE7EAF1E6E093260BF093270BE0E02A
:101FCA00F0E0E093280BF093290BE0932A0BF093AF
:101FDA002B0BE0932C0BF0932D0BE0932E0BF0932D
:101FEA002F0B1FBF199108950E94421BA0E0B3E175
:101FFA000E94891BC0DE14DC8CDC99DD0EDF08959B
:10200A00AA93A091093AA53010F0A83040F0E0E078
:10201A00E0930B3AE0930C3AE0930A3A7AC0A09123
:10202A00073AAA3028F4EA81A0910A3AAE1708F0D2
:10203A001DC0E0910B3AF0910C3AAAE0B0E00E9480
:10204A00F320DF01E091073AF0E0EA0FFB1FE0938B
:10205A000B3AF0930C3AA091073AA05D0E94561BE6
:10206A00E0910A3AEF5FE0930A3A53C0A091073A27
:10207A00AA3021F4A0910A3AA13008F421C0A09113
:10208A000B3AB0910C3AEAE0F0E00E940B21E0939F
:10209A000B3AF0930C3AE0910A3AE150E0930A3A8B
:1020AA00A981EA0FEA93A9810E94311BE0910A3AB9
:1020BA00E03011F0A0E201C0AFE30E94561B21C03C
:1020CA00A091073AAF3019F4EB81E03009F421C04E
:1020DA00E0910B3AF0910C3A0E949C20E0930B3A63
:1020EA00F0930C3AE981E150EA93A9810E94311BED
:1020FA00A0910C3AAA2312F4ADE201C0A0E20E9418
:10210A00561BE0910A3AA981EA0FEA93A9810E9433
:10211A00311BE0910B3AF0910C3A0E94C62024C17F
:10212A0025971A930A93E0910A3AE03021F0A09198
:10213A00073AAE3009F023C0E0E0EA93EA93EA9363
:10214A00A0E05EDF8F01013DE7E01E0710F000ED21
:10215A0017E0002E012A11F401E010E061DBD9DB5F
:10216A00E6DCF801A0E0BDE70E94F8203197E09391
:10217A002608F0932708DFDCD8DB5FDB09C0E09193
:10218A00093AE03029F447DED6DCCFDB56DB01DE44
:10219A00E0912608F091270866277727EF5FFF4F1F
:1021AA006F4F7F4FA0E0BDE780E090E00E941021D2
:1021BA00FA93EA93DE0114960E94241E0E94421B9F
:1021CA00AAE0B3E10E94891BE0E0EA93A1E00E9441
:1021DA00311BDE0112960E947A1BE5E0EA93A1E028
:1021EA000E94311BAAE1B3E10E94891B198108816F
:1021FA0027960895A091093AA530A1F00E94421BA2
:10220A00AEE1B3E10E94891BE5E0EA93A1E00E94F6
:10221A00311BAAE1B3E10E94891BE0E0EA93A1E045
:10222A000E94311BE0E0EA93E4E0EA93E0E0A5C211
:10223A00E091193AF0911A3A60911B3A70911C3A5E
:10224A000E94531FA0E0B0E08FEF91EC0E942D2076
:10225A00E093113AF093123A6093133A7093143A56
:10226A00E091153AF091163A6091173A7091183A3E
:10227A000E94551FA0E0B0E08FE793E40E94DF1FA1
:10228A00DF01CB01E0E0F0E060E071E40E942D2084
:10229A00DF01CB01E091193AF0911A3A60911B3AA9
:1022AA0070911C3A0E94531F0E942D20A0E0B0E0BA
:1022BA008FE793E40E948F1FE0930D3AF0930E3A52
:1022CA0060930F3A7093103A08950E949F210E94DA
:1022DA0086210E949A21A0E0B0E080E09FE30E945C
:1022EA00AD1DA0E0B4E284E799E40E94DF1F3CC080
:1022FA000E949F210E9486210E949A21A0E0B0E0BC
:10230A0080E09FE30E94AD1DA0E0B0E08AE794E47C
:10231A000E94DF1F29C00E949F210E948B210E94D8
:10232A00D61CA0E0B0E080E291E40E94DF1FDF014A
:10233A00CB01E8EEFAEE67E871E40E94AC210E9454
:10234A00881F12C00E949F210E948B210E94D61CC6
:10235A00A0E0B0E080E291E40E94DF1FA0E3BAE2CD
:10236A0080E591E40E948F1F249608952997E091B1
:10237A000A3AE03021F0A091073AAE3009F070C075
:10238A00E0E0EA93EA93EA93A0E03ADEE093193AAE
:10239A00F0931A3A60931B3A70931C3AA8E0B0E0A3
:1023AA0080E090E00E94D3207F936F93FF93EF9396
:1023BA00E0911D3AAFE0EA9FF001EC5FFD4F3496E1
:1023CA000E9480217F936F93FF93EF93E0911D3AD0
:1023DA00EA9FF001EC5FFD4F0E948021AF91BF910F
:1023EA008F919F910E94AC210E949220AF91BF9140
:1023FA008F919F910E94CD2130F5E0911D3AAFE077
:10240A00EA9FF001EC5FFD4FDF0134960E948021C4
:10241A007F936F93FF93EF93FD010E948021AF9109
:10242A00BF918F919F910E949720E8E0F0E060E0D1
:10243A0070E00E943521E093193AF0931A3A6093BA
:10244A001B3A70931C3A0E94150C63DA70DBF0DEBB
:10245A00E0911D3AE0931E3A6EDB67DA0E94220C85
:10246A00E091193AF0911A3A60911B3A70911C3A2C
:10247A000E949A21DE0114960E94521E0E94421B5B
:10248A00ADE2B3E12BC1A091073AAC3091F5E091EE
:10249A001D3AAFE0EA9FF001EC5FFD4F3C96E491F4
:1024AA00EE5FEA93A1E00E94311BA8E3B3E10E9428
:1024BA00891BE0911D3AEF5FE0931D3AE370E093C8
:1024CA001D3AAFE0EA9FF001EC5FFD4F3C96E491C4
:1024DA00EE5FEA93A1E00E94311BE0911D3AAFE062
:1024EA00EA9FF001EC5FFD4F3896DF010E94891BDD
:1024FA003CC0A091093AA63041F1E0911E3AE0931E
:10250A001D3A0E94421BACE3B3E10E94891BE09191
:10251A001D3AAFE0EA9FF001EC5FFD4F3C96E49173
:10252A00EE5FEA93A1E00E94311BE0911D3AAFE011
:10253A00EA9FF001EC5FFD4F3896DF010E94891B8C
:10254A00E1E0EA93A1E00E94311BE0E0EA93E09126
:10255A001D3AAFE0EA9FF001EC5FFD4F3C96E49133
:10256A00EA93E1E0EA93A1E04BDD08952997E0912F
:10257A000A3AE03021F0A091073AAE3009F09CC047
:10258A00E0E0EA93EA93EA93A0E03ADDE093153AB1
:10259A00F093163A6093173A7093183AE0911E3AFC
:1025AA00AFE0EA9FF001EC5FFD4F0E948021A0910D
:1025BA00153AB091163A8091173A9091183A0E94BA
:1025CA00D22194F4E0911E3AAFE0EA9FF001EC5F69
:1025DA00FD4F0E948021E093153AF093163A6093DA
:1025EA00173A7093183A5DC0E0911E3AAFE0EA9F3D
:1025FA00F001EC5FFD4FDF010E9480217F936F9312
:10260A00FF93EF93FD0134960E9480217F936F938D
:10261A00FF93EF93E091193AF0911A3A60911B3ABD
:10262A0070911C3AA8E0B0E080E090E00E94D320CC
:10263A00AF91BF918F919F910E94AC210E949220ED
:10264A00AF91BF918F919F910E94CD2150F5E0915A
:10265A001E3AAFE0EA9FF001EC5FFD4F34960E940C
:10266A0080217F936F93FF93EF93E091193AF09152
:10267A001A3A60911B3A70911C3AA8E0B0E080E0E7
:10268A0090E00E94D320AF91BF918F919F910E94B9
:10269A009720A093153AB093163A8093173A9093DD
:1026AA00183A0E94150C0E948E0C41DAC1DD43DAF9
:1026BA000E949A0C0E94220CE091153AF091163A67
:1026CA006091173A7091183A0E949A21DE01149685
:1026DA000E94521E0E94421BACE4B3E10E94891B75
:1026EA00E0E0EA93A1E00E94311BDE010E947A1B1E
:1026FA00A0E20E94561BE0911E3AAFE0EA9FF00169
:10270A00EC5FFD4F3896DF010E94891B29960895D8
:10271A00A091093AA63021F10E94421BA4E5B3E137
:10272A000E94891BE0911E3AAFE0EA9FF001EC5F3C
:10273A00FD4F3C96E491EE5FEA93A1E00E94311BC3
:10274A00E0911E3AAFE0EA9FF001EC5FFD4F389648
:10275A00DF010E94891BE1E0EA93A1E00E94311B9C
:10276A00E1E0EA93E0911E3AAFE0EA9FF001EC5F04
:10277A00FD4F3C96E491EA93E1E0EA93A1E040DC64
:10278A0008952397A091093AA83051F4E091203A8C
:10279A00A0911F3AEA1721F0A091073AAE3009F04A
:1027AA0017C0E091203AE0931F3A0E94150C0E944C
:1027BA008E0C0E949C0DE0911F3AEE0FEE0FAE2F89
:1027CA000E94E00C0E94A00D0E949A0C0E94220C0A
:1027DA00E0911F3AA1E0B0E00E94A820FA93EA93A0
:1027EA00DE0112960E94241E0E94421BA1E6B3E15A
:1027FA000E94891B4BC02397A091093AA83059F02F
:10280A00E0911F3AE093203A0E94421BA9E6B3E105
:10281A000E94891B21C0A091073AA93069F4E0916E
:10282A00203AEF5FE093203AA091203ABB27E7E0F5
:10283A00F0E00E943A210EC0A091073AA73061F455
:10284A00E091203AE150E093203AA091203AA73053
:10285A0018F0E0E0E093203AEAE0EA93A0E00E9470
:10286A00311BA9E3B3E10E94891BEAE0EA93A0E0E5
:10287A000E94311BE091203AA1E0B0E00E94A8201A
:10288A00FA93EA93DE0112960E94241EDE010E9448
:10289A007A1B23960895E091093AA2E1EA9FF00192
:1028AA00E05CFD4F3296DF01E091073AF0E0EA0F73
:1028BA00FB1F04900092083AA091083AA93071F0DF
:1028CA00E091083AA2E1EA9FF001E05CFD4F0E9424
:1028DA007C210995E091083AE093093A0895EA9330
:1028EA00FA93EFB7EA93E0916806E295EF70DE2E6D
:1028FA00E0E0E0936A06E1E0E0936C06E0E0F0E0F5
:10290A00E093200BF093210BE091000BE07FE56050
:10291A00E093000BE991EFBFF991E99118950A92BA
:10292A001A92FA926A937A938A939A93AA93BA9387
:10293A00EA93FA93EFB7EA93E0E0E093000BE1E061
:10294A00F0E0E093200BF093210BE0916806F0E0B1
:10295A000E94B820EF70F070DF01ED2DF0E0EA1769
:10296A00FB0711F00C940D15E0EFE0936006E0937D
:10297A006406E0916806EF70E093053AED2DF0E009
:10298A00E130A0E0FA0711F4CC2412C0E230A0E052
:10299A00FA0711F4E1E00BC0E430A0E0FA0711F401
:1029AA00E2E005C0E830A0E0FA0711F4E3E0CE2E39
:1029BA00E091053AF0E0E095F095EF70F070E130C3
:1029CA00A0E0FA0711F4E0E011C0E230A0E0FA0753
:1029DA0011F4E1E00BC0E430A0E0FA0711F4E2E000
:1029EA0005C0E830A0E0FA0719F4E3E0E093053AFD
:1029FA00EC2DEE0FEE0FA091053AEA2BEF70E09363
:102A0A00063AF0E0EC50FE4F04900092073A43DF9A
:102A1A00EFE0E0936006E0936406E1E0E0936C0681
:102A2A00E0EFE0936A06E991EFBFF991E991B99174
:102A3A00A9919991899179916991F990199009903F
:102A4A001895A885B985BF93AF930E9471210E94FA
:102A5A008B210E948F1FAF91BF910E947721E88539
:102A6A00F9853496FF93EF93DF010E947121AC81BF
:102A7A00BD818E819F810E948F1FAF91BF910E945D
:102A8A0077212A9608952497AC85BD850E947121E5
:102A9A00AC81BD818E819F810E94DF1F7F936F93DE
:102AAA00FF93EF93EC85FD85A481B581868197819B
:102ABA00E885F9856A857B850E94DF1FAF91BF9102
:102ACA008F919F910E94AC210E94881F0E949021A1
:102ADA00EC85FD85A481B58186819781EC81FD8194
:102AEA006E817F810E94DF1F7F936F93FF93EF9325
:102AFA00AC85BD850E947121A885B9858A859B858B
:102B0A000E94DF1FAF91BF918F919F910E948F1FEB
:102B1A00AC85BD8514960E9477210E948621AC85DA
:102B2A00BD850E94772165C0BA93AA93A881B9810D
:102B3A000E9471210E94E91E0E947721A881B98111
:102B4A0014960E9471210E94E91EA881B9811496E7
:102B5A000E9477210C94401BBA93AA932897E88580
:102B6A00F9850E94B120EE51FD4F0E9480210E94FA
:102B7A009021E885F9850E94B120EE51FD4F3496E7
:102B8A000E948021EC83FD836E837F83EA85FB8527
:102B9A00FA93EA93FE013296A8E00E94A42173DF19
:102BAA002C960895BA93AA932897EA85FB85FA93F7
:102BBA00EA93AA85BB85D0DFEC85FD85DE0188E036
:102BCA000E94B921EC85FD85FA93EA93EC85FD858F
:102BDA00A8E00E94A42135DFAA85BB85A5DFEA8586
:102BEA00FB85FA93EA93FE013296A8E00E94A4219B
:102BFA0028DF2E96089524970E94D72100E010E03E
:102C0A000930E0E01E0710F00C94591620E030E07D
:102C1A002030E1E03E0710F00C945616E02FA1E0B8
:102C2A00B0E00E94A8203197E223F323BF01F80104
:102C3A0031960E94A8203197E095F095DF01F901BD
:102C4A00EE0FFF1FEA23FB23E62BF72BAF01E02F42
:102C5A00A1E0B0E00E94A820E42BF52BE887F987D1
:102C6A00E8E0F0E0E01BF10B0E94A820D9010E94E5
:102C7A00CB20F070EE83FF83FA010E94B120E0506E
:102C8A00F84DFA93EA93EA85FB850E94B120E05059
:102C9A00F84DFA93EA93AA85BB8584DF2F5F3F4FED
:102CAA00B7CF0F5F1F4FACCF0E94DE210C94D41C0C
:102CBA00BA93AA93AF93BF93CF93A881B981EE2712
:102CCA00FF27C9E0B795A795EE1FFF1FCA95D1F751
:102CDA00CF91BF91AF91CFC41A930A9300E010E04D
:102CEA000030E2E01E0718F5F801A0E0B8E2EE0FA6
:102CFA00FF1FEA0FFB1FFF93EF93D801D9DFE050C4
:102D0A00F44DE081F0E0F070FF93EF93D801D0DF4B
:102D1A00E050F24DF081E0E0AF91BF91EA2BFB2B3E
:102D2A00AF91BF91ED93FC930F5F1F4FD9CFFAC0BC
:102D3A001A930A930FEF11E0112312F40C94F71669
:102D4A00F8010E94B120E050F84DFF93EF93F8018B
:102D5A00A0E0B8E2EE0FFF1FAE0FBF1F0E946D2169
:102D6A00E419F5090E94C6200E94551FA0E0B0E0B0
:102D7A0080E090E40E94DF1FDF01CB01E0E0F0E099
:102D8A0060E075E40E942D207F936F93FF93EF9389
:102D9A00E0911F3AA1E0B0E00E94A82066277727B9
:102DAA000E94551FAF91BF918F919F910E942D2034
:102DBA00DF01CB01E0E0F0E060E074E40E942D2046
:102DCA00AF91BF910E947721F8010E94B120EC5F78
:102DDA00F74DA0E0B0E080E090E00E94952101501C
:102DEA001040AACF9FC01A930A9300E010E0003067
:102DFA00E1E01E0710F00C946117F801A0E0B8E2B8
:102E0A000E94B320EA0FFB1FFF93EF93E0911E3A53
:102E1A00AFE0EA9FF001EC5FFD4F3D960E947C21F6
:102E2A00FF93EF93F8010E94B120E050F84DDF01C3
:102E3A000E9471217F936F93FF93EF93F8010E9491
:102E4A00B120E050F84DDF010E947121AF91BF918E
:102E5A008F919F910E94DF1F7F936F93FF93EF9350
:102E6A00F8010E94B120EC5FF74DDF010E94712149
:102E7A007F936F93FF93EF93F8010E94B120EC5F69
:102E8A00F74DDF010E947121AF91BF918F919F9100
:102E9A000E94DF1FAF91BF918F919F910E948F1F58
:102EAA00DF01CB01EF91FF910995AF91BF910E948C
:102EBA0077210F5F1F4F9BCF35C01A930A9300E00B
:102ECA0010E00030E1E01E0768F5F801A0E0B8E282
:102EDA000E94B320EA0FFB1FFF93EF93F801A0E0D3
:102EEA00B8E20E94B320AE0FBF1F0E947121A091C9
:102EFA00113AB091123A8091133A9091143A0E9481
:102F0A00DF1FA0910D3AB0910E3A80910F3A90913D
:102F1A00103A0E948F1FAF91BF910E9477210F5FD5
:102F2A001F4FCFCF0991199108950E949F210E94A6
:102F3A008B21E0E0FDEF6FEF76E40E94722020F033
:102F4A00EFEFFFE70C94EB1C0E948B21E0E0FFEF10
:102F5A006FEF76EC0E94722020F4E0E0F0E80C9427
:102F6A00EB1CAB81AA2302F10E948B210E94161C42
:102F7A000E948B210E94AC210E94881FDF01CB0195
:102F8A00E0E0F0E060E07FE30E94722030F40E940B
:102F9A0086210E941E1F0C94EB1C0E9486210E940F
:102FAA001E1F31960C94EB1C0E948B210E94161C4A
:102FBA000E948B210E94AC210E94881FDF01CB0155
:102FCA00E0E0F0E060E07FE30E94722038F40E94C3
:102FDA0086210E941E1F31970C94EB1C0E948621A9
:102FEA000E941E1F0C94EB1C0E949F210E948621A6
:102FFA00AC81BD818E819F810E94722009F010F4FC
:10300A000C941D18E0E0F0E06FE773E40E94722070
:10301A0009F010F40C941318EFEF55C0AF81AA23EE
:10302A0012F4E0E050C0AC81BD818E819F814AC01C
:10303A000E948B21E0E0F0E06FE773E40E947220C7
:10304A0009F010F40C942B18EFEF3DC0AB81AA23C2
:10305A0012F4E0E038C034C00E949F210E94862109
:10306A00AC81BD818E819F810E947220B0F4E0E024
:10307A00F0E06FE773E40E94722009F010F40C94F8
:10308A004818EFEF20C0AF81AA2312F4E0E01BC07A
:10309A00AC81BD818E819F8115C00E948B21E0E0A9
:1030AA00F0E06FE773E40E94722009F010F40C94C8
:1030BA006018EFEF08C0AB81AA2312F4E0E003C066
:1030CA000E948B2132DF289608950E949F21EC816D
:1030DA00FD816E817F81A885B9858A859B850E943D
:1030EA00722009F010F40C9483180E9486210E9421
:1030FA00722009F010F40C94831801C01EC0A88530
:10310A00B9858A859B85E0E0F0E06FE773E40E9469
:10311A00722009F010F40C949518EFEF0C94C01E6D
:10312A00AB85AA231AF4E0E00C94C01EA885B985E1
:10313A008A859B85FADE0C94C01E0E948621AC818A
:10314A00BD818E819F810E94722009F010F40C9437
:10315A00C818E0E0F0E06FE773E40E94722009F01B
:10316A0010F40C94BB18EFEF0C94C01EAF81AA2385
:10317A001AF4E0E00C94C01EAC81BD818E819F815F
:10318A00D4DE0C94C01E0E948B21E0E0F0E06FE7D1
:10319A0073E40E94722009F010F40C94D718EFEF30
:1031AA000C94C01EAB81AA231AF4E0E00C94C01E52
:1031BA000E948B21BADE0C94C01E0E949F21EC81D2
:1031CA00FD816E817F81A885B9858A859B850E944C
:1031DA00722028F40E9486210E94722008F01EC0E4
:1031EA00A885B9858A859B85E0E0F0E06FE773E4FE
:1031FA000E94722009F010F40C940619EFEF0C9457
:10320A00C01EAB85AA231AF4E0E00C94C01EA88560
:10321A00B9858A859B8589DE0C94C01E0E94862109
:10322A00AC81BD818E819F810E947220D0F4E0E042
:10323A00F0E06FE773E40E94722009F010F40C9436
:10324A002919EFEF0C94C01EAF81AA231AF4E0E00B
:10325A000C94C01EAC81BD818E819F8166DE0C9468
:10326A00C01E0E948B21E0E0F0E06FE773E40E9449
:10327A00722009F010F40C944519EFEF0C94C01E5B
:10328A00AB81AA231AF4E0E00C94C01E0E948B21A1
:10329A004CDE0C94C01EF894E091A200E873E7603B
:1032AA001E2FE8EDE4BF1093A200E0E0E093A10036
:1032BA000E942B0A0E949D0C0E946A0A0E94AF0B70
:1032CA000E94260C0E94CC0B0E94570E0E94D20E1E
:1032DA000E94AE0FE0911F3AEE0FEE0FEC71AE2F87
:1032EA000E94E00CA0E123D2A4EFB1E00E94C21E2A
:1032FA00C4D1A4E7B3E108D2A8EEB3E00E94C21E8B
:10330A00BCD1E0E0F0E0E093200BF093210BE1E088
:10331A00E0930C0BE0E0E093000B0E94F90F789425
:10332A00E091093AE030E1F3A8D1E2E0E215E9F7E9
:10333A00D3DCFEDC0E94001656DDBFDDE3E02E2E54
:10334A00E0910028F09101286091022870910328E9
:10335A000E949A21E0910428F0910528609106289C
:10336A0070910728A0910028B09101288091022825
:10337A00909103280E948F1FA0E0B0E080E09FE3B5
:10338A000E94DF1FDF01CB012FDEE093FF39E091BE
:10339A000028F091012860910228709103280E9468
:1033AA009A21E0910428F0910528609106287091ED
:1033BA000728A0910028B0910128809102289091B5
:1033CA0003280E948F1FA0E0B0E080E09FE30E94E4
:1033DA00DF1FDF01CB0140DEE093FF3821E030E060
:1033EA002F3FE0E03E0710F00C94BA1AEFEFF0E03E
:1033FA00E21BF30BE050F74CFF93EF93F901A0E0C7
:10340A00B8E20E94B320AE0FBF1F0E9471210E9432
:10341A009A21F901A0E0B8E20E94B320AE0FBF1FC3
:10342A000E9471217F936F93FF93EF93D9010E94BA
:10343A00C120AC5FB74D0E947121AF91BF918F91AE
:10344A009F910E948F1FA0E0B0E080E09FE30E945E
:10345A00DF1F0E949A21F901A0E0B8E20E94B3207E
:10346A00AE0FBF1F0E9471217F936F93FF93EF935B
:10347A00F9013197A0E0B8E20E94B320AE0FBF1F56
:10348A000E947121AF91BF918F919F910E948F1FCE
:10349A00A0E0B0E080E09FE30E94DF1FDF01CB01E4
:1034AA0014DEAF91BF91EC93EFEFF0E0E21BF30B68
:1034BA00E050F84CFF93EF93F901A0E0B8E20E94C4
:1034CA00B320AE0FBF1F0E9471210E949A21F901F9
:1034DA00A0E0B8E20E94B320AE0FBF1F0E94712184
:1034EA007F936F93FF93EF93D9010E94C120AC5F42
:1034FA00B74D0E947121AF91BF918F919F910E9408
:10350A008F1FA0E0B0E080E09FE30E94DF1F0E94CF
:10351A009A21F901A0E0B8E20E94B320AE0FBF1FC2
:10352A000E9471217F936F93FF93EF93F901319773
:10353A00A0E0B8E20E94B320AE0FBF1F0E94712123
:10354A00AF91BF918F919F910E948F1FA0E0B0E031
:10355A0080E09FE30E94DF1FDF01CB012EDEAF91E7
:10356A00BF91EC932F5F3F4F3BCFE091FC2BF09143
:10357A00FD2B6091FE2B7091FF2B0E949A21A09146
:10358A00FC2BB091FD2B8091FE2B9091FF2BE091AB
:10359A00F82BF091F92B6091FA2B7091FB2B0E947A
:1035AA008F1FA0E0B0E080E09FE30E94DF1FDF01F1
:1035BA00CB011ADDE0930039E091FC2BF091FD2B51
:1035CA006091FE2B7091FF2B0E949A21A091FC2BF7
:1035DA00B091FD2B8091FE2B9091FF2BE091F82B5F
:1035EA00F091F92B6091FA2B7091FB2B0E948F1F9F
:1035FA00A0E0B0E080E09FE30E94DF1FDF01CB0183
:10360A002BDDE0930038222490CEFFCFAA93E091DD
:10361A008406EF70AE2FE881E07FEA2BE093840600
:10362A0085E18A95F1F7E4E0E093850685E38A95DA
:10363A00F1F7E093860685E38A95F1F7BFC0AA936E
:10364A00A881E4DFE881E295E883A881DFDF80E9E9
:10365A0091E00197F1F7B2C0AA93E881F0E0EF5D3B
:10366A00F54CE081A981AE0FEADFE981E093253AC2
:10367A00E881E093263A22960895A2E0E0DFA3E0EB
:10368A00B0E00E94C21EACE0DADFA1E0D8DFA3E01E
:10369A00B0E00E94C21EE0E0E093263AE093253AA9
:1036AA000895AA93A881AA3031F0E091273AA0910F
:1036BA00253AAE1760F0E0E0EA93A091263AAF5FB0
:1036CA00A093263AC9DFA881AA3009F477C0E0910D
:1036DA00253AEF5FE093253AE1E0E0938506A88179
:1036EA00AEDFE1E0E093860669C0BA93AA931A9323
:1036FA00A981BA81ED91A983BA831E2FE03019F00E
:10370A00A12FCFDFF5CF10C0BA93AA931A93E981FC
:10371A00FA813196E983FA833197E4911E2FE030DA
:10372A0019F0A12FBEDFF3CF188123960895AA932B
:10373A00E0918006E06FE0938006E4E0E093810682
:10374A00E1E0E0938106E2E0E0938106E4E0E093C1
:10375A008606E1E0E0938606E2E0E0938606E881E9
:10376A00E093273AE058E093233AE881E054E09363
:10377A00243AA4E1B0E00E94C21EA0E347DF80E23F
:10378A0093E00197F1F7A0E341DF80E293E001972C
:10379A00F1F7A0E33BDF80E293E00197F1F7A0E2C3
:1037AA0035DF80E293E00197F1F7A8E248DFA4E071
:1037BA0046DFA5E844DFA6E042DF5FDF21960895F1
:1037CA000E949F217B816A81F981E88177FB770FCB
:1037DA0067FD7160972F9E5781F078F0983190F4C9
:1037EA00AA27BB27882708948795B795A7959A95FE
:1037FA00D1F7EA23FB23682305C0E8947727EE274D
:10380A00FF2766276F77769508F4606877F9A9919C
:10381A00B99189919991EA17FB076807790797FB8C
:10382A0008950E949F210E948B210E94E51B0E94FD
:10383A00902119F40E948621C9C0E6F70E948621C8
:10384A00A0E0B0E080E89FE30E94881FBFC00E940A
:10385A009F2124971A930A93AE81BF8188859985FF
:10386A000E94C7212CF0EFEFFFEF6FE77FEF95C0C3
:10387A00EE81FF81688579850E949A21ADB7BEB72E
:10388A0011971F930F930E94CC1E0F911F91EE83E5
:10389A00FF8368877987AE81BF8188859985E3EF41
:1038AA00F4E065E37FE30E94722060F4EE81FF8119
:1038BA00688579850E948F1FEE83FF8368877987E1
:1038CA0001501040EE81FF8168857985A0E0B0E063
:1038DA0080E89FE30E94881F7F936F93FF93EF9383
:1038EA00EE81FF8168857985A0E0B0E080E89FE3FA
:1038FA000E948F1FAF91BF918F919F910E942D209F
:10390A00EE83FF8368877987AE81BF818885998531
:10391A000E94DF1FEA83FB836C837D83A6E2B2E405
:10392A0085E69FE30E94DF1FDF01CB01EEE4F1E1B0
:10393A0064E570E40E94AC210E94881FAE81BF81B9
:10394A00888599850E94DF1F7F936F93FF93EF937A
:10395A00EA81FB816C817D81ADE4B1E184ED9FE375
:10396A000E94881FAF91BF918F919F910E942D2035
:10397A007F936F93FF93EF93F8010E94C6200E94F2
:10398A00551FA8E1B2E781E39FE30E94DF1FAF91D1
:10399A00BF918F919F910E948F1F198108812A964A
:1039AA0008950E949F210E948B210E94C7212CF01A
:1039BA00EFEFFFEF6FE77FEF09C00E948B2147DF30
:1039CA00A9EDBBE58EED9EE30E94DF1F24960895C4
:1039DA000E949F2128971A930A93AA85BB858C85F2
:1039EA009D85E0E5FCEA6EEA72EC0E94722028F4FA
:1039FA00E0E0F0E060E070E0A7C0EA85FB856C8556
:103A0A007D850E94C32129F4E0E0F0E060E87FE3CD
:103A1A009BC0AA85BB858C859D85E8E1F2E761EBB1
:103A2A0072E40E94722009F010F40C94211DEFEF49
:103A3A00FFEF6FE77FE788C0AA85BB858C859D85E8
:103A4A00EBE3FAEA68EB7FE30E94DF1FEA87FB8772
:103A5A006C877D87AA85BB858C859D85E2DE0E9461
:103A6A001E1F8F01F801AA85BB858C859D850E9442
:103A7A00C6200E94551F0E94AC210E94881FDF01A8
:103A8A00CB01E0E0F0E060E07FE30E94AC210E941D
:103A9A00881FEE83FF8368877987AE81BF81888517
:103AAA0099850E94DF1FEA83FB836C837D83ADE6E1
:103ABA00BCE48CE69DE30E94DF1FA6EAB3EE86EE25
:103ACA0090E40E948F1FAE81BF81888599850E94EC
:103ADA00DF1FEE83FF8368877987EA81FB816C8128
:103AEA007D81A8E2BDE886EA91E40E948F1FEA83FD
:103AFA00FB836C837D83EE81FF8168857985AA814A
:103B0A00BB818C819D810E948F1FA3EFB4E085EB5E
:103B1A009FE30E94DF1F7F936F93FF93EF93AE8122
:103B2A00BF8188859985EA81FB816C817D810E94AC
:103B3A00881FAF91BF918F919F910E942D200E9463
:103B4A009A21D8010E94DD1E198108812E960895B6
:103B5A000E949F212497E885F9856A857B850E94C2
:103B6A00C32131F4E0E0F0E060E070E00C94C01EA4
:103B7A00A885B9858A859B850E94C721ECF4EC81CA
:103B8A00FD816E817F810E94C32131F4E0E0F0E083
:103B9A0060E87FE30C94C01EA885B9858A859B8559
:103BAA0056DEAC81BD818E819F810E94DF1FDF01BD
:103BBA00CB010EDF0C94C01EEC81FD816E817F81EA
:103BCA00DE010E941E1F0E9477210E9486210E9408
:103BDA00551FDF01CB01EC81FD816E817F810E943F
:103BEA00CD2131F0E0E0F0E060E070E00C94C01E1E
:103BFA00E885F9856A857B850E94E91EDF01CB018C
:103C0A0026DEAC81BD818E819F810E94DF1FDF018C
:103C1A00CB01DEDEE887F9876A877B87E881E17076
:103C2A0031F4E885F9856A857B850C94C01EE885A0
:103C3A00F9856A857B850E94E91E0C94C01EBA9399
:103C4A00AA93A991B991E991F99130962AF4E0954C
:103C5A00F09531966DE26D93E89480E197E20DD08C
:103C6A0088EE93E00AD084E6992707D08AE005D047
:103C7A006E2F10D066276C9308956627E817F90708
:103C8A0020F06395E81BF90BC9F7662311F416F0C7
:103C9A0008956894605D6D930895BA93AA932497E2
:103CAA001A930A93E0E0FAEC6AE97BE3EA83FB837E
:103CBA006C837D8300E0AB85AA2392F4E885F985BD
:103CCA006A857B850E94A020E887F9876A877B87B7
:103CDA00AE81BF811196AE83BF831197EDE2EC935B
:103CEA00EA81FB816C817D81A885B9858A859B855E
:103CFA000E9410211E2F103071F4003061F4AA8145
:103D0A00BB818C819D81A130E0E0BE07E0E08E0797
:103D1A00E0E09E0751F4AE81BF811196AE83BF8366
:103D2A001197E12FE05DEC9301E0EA81FB816C8160
:103D3A007D81A885B9858A859B850E944821E88767
:103D4A00F9876A877B87AA81BB818C819D81EAE09A
:103D5A00F0E060E070E00E941021EA83FB836C834C
:103D6A007D830E94C32109F0BBCFAE81BF81E0E011
:103D7A00EC93198108812C960895109639F080E405
:103D8A009FE10197F1F7A8951197C9F70895E9916D
:103D9A00F9916991799177FB660F771F88277E578A
:103DAA00880B7D938C937EE7769567956EF00895E0
:103DBA00E991F9916991799177FB660F771F7A0FEB
:103DCA00769567950EF0089530976040704009F037
:103DDA0070580895552342F4503811F4E0FF04C096
:103DEA003196691F791F6BF050E8572711F45F93DA
:103DFA00CFC05F3F31F0660F000C57956795752F5E
:103E0A0008955F9300200AF0CFC0C8C050E8192E69
:103E1A001522880F991F9527550F879550E8072E69
:103E2A000522660F771F7527550F679508956894C1
:103E3A0001C0E8945F93F2DF703818F07F3F08F40E
:103E4A00A7C056E1571BAAF4519558300EF45930C1
:103E5A0030F0EFEFFFEF6FEF7FE777F91AC07727C0
:103E6A005523B9F0EE0FFF1F661F771F5A95D1F73A
:103E7A0010C07727583028F0EF2FF62F672F5850A9
:103E8A00F9CF552331F076956795F795E7955A95C9
:103E9A00D1F700200AF44FD15F910895689401C0C8
:103EAA00E894309760407040B1F0002426F0772300
:103EBA0012F4009440D1172E7EE1112032F07A9547
:103ECA00EE0FFF1F661F111CF9CFEF2FF62F612D82
:103EDA005F938ADF5F9108954F93AF01FD01DA0185
:103EEA00AB01BC01CA01402D012C142E4F9108953B
:103EFA00EA0FFB1F681F0895E095F0956095EF5F44
:103F0A00FF4F6F4F08955F9381DF903871F150E84A
:103F1A00152604C05F937ADF903839F1703821F1A1
:103F2A00572F591B2BF112F4D7DFFACF583118F05B
:103F3A00AA27BB278827583028F0AB2FB82F882705
:103F4A005850F9CF552329F08695B795A7955A95D4
:103F5A00D9F7502D512572F0CBDF38F46795F795D4
:103F6A00E795739513F420C0B7DF3EDF5F9108959C
:103F7A00D8F7FBCFEA1BFB0B680B51F010F4009447
:103F8A00BBDF662392F3EE0FFF1F661F7A95CBF70E
:103F9A00EE27FF27662777275F910895EFEFFFEF58
:103FAA006FE77FEF5F910895EFEFFFEF6FE77FE72E
:103FBA005F9108955F932ADF703851F3903841F387
:103FCA0001240894791F23F41CF300203AF3ECCF60
:103FDA000F921F932F933F934F93112722279927CD
:103FEA00689FA0018F9F302D410D591F6B9F300D87
:103FFA00411D591F8E9F27D0BF9F25D06A9F23D06E
:10400A00BE9F1DD0AF9F1BD0AE9F110D291F391F18
:10401A00491F591FE32FF42F652F522F4F913F91BC
:10402A002F911F910F9066232AF0550FEE1FFF1F45
:10403A00661F02C073954BF2CDDE5F910895100D95
:10404A00211D391F02C0200D311D491F591F089516
:10405A005F93DCDE703821F411200AF49FCFA4CFDD
:10406A00903809F495CF01240894970B1BF4D4F3E4
:10407A000020F3CF792F1F932F933F934F9311244F
:10408A001127222733274427552790E2AE17BF0767
:10409A008607410730F0AE1BBF0B860B410B089415
:1040AA0001C08894551F221F331F111CAA1FBB1F52
:1040BA00881F441F9A9551F7F901612D4F913F913D
:1040CA002F911F91662332F0550FEE1FFF1F661FB7
:1040DA007A9543F27FDE5F91089599239AF07723C8
:1040EA0042F0971748F029F4AE17BF07860720F069
:1040FA0031F098948894089598940894089518949F
:10410A00889408957723C2F7971798F3A9F7EA17BF
:10411A00FB07680788F399F3ECCFEA1BFB0B680BE4
:10412A00790B0895AE1BBF0B860B970B0895F1957B
:10413A00E195F0400895F09560957095E195FF4FEF
:10414A006F4F7F4F0895EE230E2EFD0121F0EE0FE3
:10415A00FF1F0A94E1F70895EE0FFF1FEE0FFF1FEE
:10416A00EE0FFF1F0895F595E795F595E795F595F7
:10417A00E795F595E7950895AA0FBB1FAA0FBB1FF0
:10418A0008956F2F660F660B762F0895FA9FF02D0C
:10419A00EB9FF00DEA9FE02DF10D08957A9F702DA7
:1041AA006B9F700DF89F700DE99F700D6A9F602DCF
:1041BA00710DFB9F600D711DE89F600D711D8827B1
:1041CA00FA9FF02D610D781FEB9FF00D611D781F8E
:1041DA00EA9FE02DF10D681F781F089558D0D6DFA9
:1041EA000EF4A5DF08950024112490E1AA0FBB1F45
:1041FA00001C111C0E1A1F0A18F40E0E1F1E01C0F5
:10420A00A1609A9599F7FD01D001089540D0EBDF9E
:10421A000EF48DDF08953F934F935F93002411248A
:10422A004427552730E2AA0FBB1F881F991F001C7D
:10423A00111C441F551F0E1A1F0A460B570B28F450
:10424A000E0E1F1E461F571F01C0A1603A9559F74F
:10425A00FD01BC01D001CA015F914F913F910895C0
:10426A0024D0D9DF0EF467DF0895E894B7FF04C0BD
:10427A00A095B09511966894F7FD59DFB4DFFD015A
:10428A000EF455DF0895C7DFFD01BC010895E894D7
:10429A00F7FF02C04CDF6894B7FF06C0A095B0953F
:1042AA00119600F8039400FA0895E89477FF02C083
:1042BA0042DF689497FF0BC00024A095B0958095C3
:1042CA0090951196801D901D00F8039400FA0895A8
:1042DA00ED91FC9111970895ED91FD916D917C916D
:1042EA0013970895ED93FD936D937C93089505902C
:1042FA00F491E02D08950590159065917491F0015F
:10430A000895E881F9816A817B810895A881B9813C
:10431A008A819B810895E883F9836A837B83089560
:10432A00A083B1838283938308957A936A93FA93DD
:10433A00EA9308959A938A93BA93AA930895BB2706
:10434A00EA0FFB1F02900A921197E1F70895182EBF
:10435A00862F612D192E972F712D1B2EBF2FF12D10
:10436A001A2EAE2FE12D08959927EF93FF936191AD
:10437A006D930197E1F7FF91EF91089530976040AF
:10438A007040089500240A160B06080609060895C7
:10439A00EA17FB07680779070895AE17BF0786076C
:1043AA00970708955A934A933A932A931A930A932A
:1043BA0008955D814C813B812A8119810881089584
:00000001FF
